:020000041000EA
:1000000000B5324B212058609868022188439860DF
:10001000D860186158612E4B002199600221596106
:100020000121F02299502B49196001219960352056
:1000300000F044F80222904214D00621196600F024
:1000400034F8196E01211966002018661A6600F04E
:100050002CF8196E196E196E052000F02FF8012189
:100060000842F9D1002199601B49196000215960AB
:100070001A491B48016001219960EB211966A021F2
:10008000196600F012F800219960164914480160C1
:100090000121996001BC002800D000471248134993
:1000A000086003C880F30888084703B5996A0420EC
:1000B0000142FBD001200142F8D103BD02B5186610
:1000C0001866FFF7F2FF186E186E02BD00000240BE
:1000D000000000180000070000035F00212200005C
:1000E000F4000018222000A00001001008ED00E03C
:1000F00000000000000000000000000074B24E7A12
:1001000000200420F7010010C3010010C5010010F9
:10011000C1010010C1010010C1010010C101001097
:10012000C1010010C1010010C1010010C701001081
:10013000C1010010C1010010C9010010CB01001065
:10014000CD010010CD010010CD010010CD01001037
:10015000CD010010CD010010CD010010CD01001027
:10016000CD010010CD010010CD010010CD01001017
:10017000CD010010CD010010CD010010CD01001007
:10018000CD010010CD010010CD010010CD010010F7
:10019000CD010010CD010010CD010010CD010010E7
:1001A000CD010010CD010010CD010010CD010010D7
:1001B000CD010010CD010010CD010010CD010010C7
:1001C00000BE00BE00BE00BE00BE00BEEFF3058054
:1001D000103800BEF2EB8871E8C9001008CA0010A0
:1001E0003402001090A31AE700201F49086006C8D7
:1001F00081F3088810471D48006800282FD10DA4FE
:100200000ECC002902D000F012F8F9E71849194A7B
:10021000002000E001C19142FCD1174988471749ED
:1002200088471749884700BEFDE701C901C29A42C5
:10023000FBD3704708CA0010C0000020181000202F
:1002400060D90010000004200000042060D90010D4
:10025000001004200010042000000000704709482E
:1002600006F04EFD0047000008ED00E0000000D061
:100270001810002094340220395500106D1500101C
:100280002D5600105756000006005250ABB3605375
:1002900010C7001006005250861C030220C7001031
:1002A000060052505422A29D30C700100500525043
:1002B000DE65F46860D90010F8B5C0460448054B07
:1002C00010B5834203D0044B002B00D0984710BDDB
:1002D00018100020181000200000000006480749F0
:1002E000091A8B10C90FC91810B5491003D0044B57
:1002F000002B00D0984710BD1810002018100020C7
:100300000000000010B5074C2378002B09D1FFF73F
:10031000D5FF054B002B02D0044800E000BF0123AD
:10032000237010BD201100200000000068C30010E1
:10033000054B10B5002B03D00449054800E000BF71
:10034000FFF7CCFF10BDC0460000000024110020C4
:1003500068C30010F8B5CE464746942680B5042100
:10036000002003F0A3FC0421012003F09FFC0421E2
:100370000E2003F09BFC04210F2003F097FC1024B7
:10038000002201208C21B0469C27294B294D1A6060
:100390009A60DA601D615C6018601A609A60DA60C9
:1003A0001D615C6018605A509A5104369A51B446E7
:1003B000083EDD51B1469C51464658505A509A511C
:1003C00066469A514A46DD519C50585001230024FC
:1003D0009846194F194E1A4D0CE01A4B9C4202D800
:1003E0004346002B1FD100239846053C32200021B4
:1003F00004F074FA39682304180C41400904090C0C
:10040000316039685940090C090431602A680E4985
:1004100042401204120C0A602A6853401B0C1B0451
:100420000B60002CD9DC012305349846DEE7C0467A
:1004300000000540FFFF00000C0005400C100540C7
:100440009800054015CB000098100540F0B5C64651
:1004500000B5384984B038480AF0F0F90321022089
:1004600003F024FC0321032003F020FC00220121DF
:10047000022003F033FC00220121032003F02EFCB4
:100480006B469C1C210029200AF0C2FF0221292072
:100490000BF0E4F82378002BF4D0C82004F030FAF5
:1004A00029200AF0D3FD022129200AF01BFF642134
:1004B00029200AF043FE642129200AF083FF292025
:1004C0000AF012FE6B46DC1C1C4B012798461C4EA2
:1004D00001AD210029200AF00DFE0A2002F080FD66
:1004E0002378002BF5D0290029200AF097FF01215D
:1004F0003068494201F0D4FF688806F033FF0022DB
:10050000104B06F0A0FE06F075FF4346002218606F
:1005100000210023306801F03DFD29200AF0DEFDB6
:10052000002F02D029200AF0D9FD642002F058FDE6
:100530000027CEE7801A0600D80F0020782D002073
:100540007C2D002000408F4070B5D02580242D06E2
:10055000A404192003F0DAFB6C626C61FA20EC61F0
:10056000400002F03DFDF9E7F0B5DE464E46574645
:1005700045460024E0B5EB4B91B00FAE338032001E
:10058000022368210194009483460AF06BFB6420E7
:1005900002F026FD6B23320033806821693B584608
:1005A000019400940AF05EFB75233370743B019351
:1005B0000CAB009332000123682158460AF052FB2D
:1005C0000AAA3B23944602243370313B6344320031
:1005D000019400936821012358460AF043FB0AABBB
:1005E0005B8968211A021B0A13430AAA53813D231F
:1005F00033700DAB320001940093584601230AF08A
:1006000031FB0AAB9B8968211A021B0A13430AAA11
:1006100093813F2394463370313B6344320001940D
:100620000093584601230AF01DFB0AABDB896821C1
:100630001A021B0A13430AAAD381432333700EAB59
:10064000320001940093584601230AF00BFB0AABD9
:100650001B8A68211A021B0A13430AAA1382452324
:1006600094463370333B6344320001940093584600
:1006700001230AF0F7FA0AAB5B8A0AA91A021B0ADD
:1006800013430AAA538247238C46537209226821D6
:100690006244019458460096463B0AF0E3FA3388D8
:1006A0001C021B0A1C430AAB0A20185E24B23480C9
:1006B00007F058FB011C9C4807F0E3FA9B4907F040
:1006C000E6FA0AAB82460C20185E07F04BFB98490D
:1006D00007F0DAFA974907F0DAFA0AAB051C0E20A0
:1006E000185E07F03FFB944907F0CEFA934907F0F4
:1006F000CEFA0AA980461220085E07F033FB904923
:1007000007F0BFFA8F4907F0C2FA071C200007F074
:1007100029FB8D4907F0B5FA8A4907F0B8FA0AA90A
:1007200081461024085F404207F01CFB874907F010
:10073000ABFA844907F0ABFA43465246011C4846DF
:10074000A84604930193039200922B1C4A460990F9
:10075000381C08970AF088FF43467D4940460F68D9
:100760007C4906930D687C490C687C4909680591B1
:10077000391C07F0A0FA291C8046039807F09BFA61
:10078000011C404607F080FA211C8046049807F0BF
:1007900092FA011C404607F077FA011C07F074FA40
:1007A00005990790081C8A4607F085FA391C80468F
:1007B000381C07F080FA291C8146281C07F07BFAB8
:1007C000011C484607F060FA211C8146201C07F0F6
:1007D00072FA011C484607F057FA011C404607F020
:1007E00050FA514680465046059107F04DFA291CB3
:1007F0008146049807F05FFA211C8246039807F0AF
:100800005AFA011C504607F03CFA494607F053FAE1
:1008100007998246381C07F04EFA41460A9006981E
:1008200007F049FA011C0A9807F02EFA011C5046FD
:1008300007F02AFA211C0A90069807F03CFA391CA6
:100840008246049807F037FA011C504607F019FA5F
:10085000494607F030FA07998246281C07F02BFA20
:1008600041460B90039807F026FA011C0B9807F0FD
:100870000BFA011C504607F007FA01218246384B5B
:1008800049421B6818000B9301F00AFE354B059A8C
:100890001F605D609C60DA60334B0A9A03981A60AF
:1008A0005246391C5A6007F006FA291C071C0698A4
:1008B00007F001FA011C381C07F0E3F9494607F07C
:1008C000FAF90799051C201C07F0F5F94146041CAC
:1008D000049807F0F0F9011C201C07F0D5F9011C61
:1008E000281C07F0D1F907F065FA204A204B06F0E2
:1008F00098FC06F07FFD1C4B0899099A98601D4BE7
:1009000019605A6000231B4A00219360144B002297
:100910001B6803930398002301F03CFB0A2002F0BC
:100920005FFB4DE66B80FFFF0060424400A0D144B6
:100930000000F4410020D144004021440020D5446F
:100940000000E24300F0C6450000924200408745A7
:100950003C1100204411002040110020E40F002031
:10096000702D002084310220DC1400209A9999997E
:100970009999234058300020F0B5DE4657464E4640
:100980004546E0B514008FB00D1C07005F491068A4
:1009900007F091F9646881465C49201C07F08BF9E7
:1009A000FA21061C8905281C07F085F9FA218246E0
:1009B0008905201C07F07FF9554907F068F9494679
:1009C000051C504607F05DF9311C834607F059F9C4
:1009D000291C07F056F94F4C311C804620605846C0
:1009E00007F052F9291C07F04FF951460890606052
:1009F000484607F049F9311C814607F045F9291CA2
:100A000007F03FF9311C0990A060484607F039F91A
:100A1000291C07F039F946460EAB9A460023814659
:100A2000E0600021301C9B460AAD07F07BF90028EE
:100A300019D13949301C07F03EF9384907F024F93B
:100A400007F0C2F9364907F01CF9364907F01FF9DB
:100A500001C50434AA450BD026680021301C07F0DC
:100A600061F90028E5D05B4608C504345545F3D14B
:100A70000A9B0D9A9A460B9B50469B460C9B0792ED
:100A8000069307F097F9040007980D0007F092F914
:100A900004900591069807F08DF90290039158464D
:100AA00007F088F9204E22002B00009001913000C1
:100AB0001E490AF0A1FA404607F07CF904004846B6
:100AC0000D0007F077F904900591099807F072F985
:100AD00002900391089807F06DF9220000900191AF
:100AE0002B00300012490AF087FA5146380039606D
:100AF0005946069B079A7960BB60FA600FB03CBC10
:100B000090469946A246AB46F0BDC046D8F889400B
:100B10004A72C33B842D00208460BB3E7211963B19
:100B200075988A3D84603B3E68C300107CC300100A
:100B300084C30010F0B5DE4657464E464546E0B544
:100B400097B00CE30021484607F0B5F85946041C5D
:100B500007F097F8211C0590281C07F092F8002157
:100B6000041C584607F0A7F80021061C281C07F0B3
:100B7000A2F8011C301C07F084F8061C504607F050
:100B800023F9011CFE20800507F081F88046011C36
:100B9000281C07F090F80599051C081C07F08BF835
:100BA000211C071C201C07F086F8011C381C07F0CC
:100BB0006BF8311C071C301C07F07DF8011C381C39
:100BC00007F062F807F000F9011CFE20800507F02D
:100BD0005EF8071C011C201C07F06DF8FE21041CA8
:100BE0008905281C07F050F88246011C201C07F0DC
:100BF0004BF8FE21890507F047F807F0DBF8020003
:100C00000B00002000210BF067FB06F0F3FB07F060
:100C1000DBF8FC21890507F04EF8211C02905046B4
:100C200007F02FF8FE21890507F02BF807F0C2F82E
:100C300002000B00002000210BF04EFB06F0DAFB57
:100C400007F0C2F88346FE20291C800507F019F83A
:100C50008246011C201C07F017F8FE21890507F0C9
:100C600010F807F0A7F802000B00002000210BF09D
:100C700033FB06F0BFFB07F0A7F8211C051C50460C
:100C800006F0FFFFFE21890506F0FEFF07F092F84F
:100C900002000B00002000210BF01EFB06F0AAFB57
:100CA00007F092F8FC2182468905584607F003F8C0
:100CB00007F080F883460C00301C391C06F0FBFF5F
:100CC00007F078F86400C90FC90764080C432100D5
:100CD000584606F08FFBFC2183468905281C06F048
:100CE000EAFF07F067F805000C004846414606F0A9
:100CF000E2FF011C002006F0C4FF07F05BF864006F
:100D0000C90FC90764080C432100280006F072FBD4
:100D1000FC21051C8905504606F0CDFF07F04AF876
:100D200006000C000698414606F0C5FF391C8046B7
:100D3000059806F0C0FF011C404606F0A2FF07F030
:100D400039F86400C90FC90764080C43210030005A
:100D500006F050FB802212069446019B009F6344DC
:100D60009846049B041C63449946039B594663447C
:100D7000381C9A4606F09FFF291C061C504606F0B8
:100D80009AFF011C301C06F07FFF211C061C484600
:100D900006F091FF011C301C06F073FF43460299D8
:100DA000061C4046059306F086FF011C301C06F029
:100DB0006BFF59468046039806F07DFF291C061CF0
:100DC000381C009706F077FF011C301C06F05CFF12
:100DD000211C061C059806F06EFF011C301C06F055
:100DE00053FF0299061C484606F065FF011C301CA3
:100DF00006F04AFF5946071C484606F05CFF291CCE
:100E0000061C059806F057FF011C301C06F039FF40
:100E1000211C061C009806F04EFF011C301C06F039
:100E200033FF0299061C504606F045FF011C301C9A
:100E300006F02AFF0199061C584606F03CFF291CC3
:100E40000590484606F037FF011C059806F019FF8B
:100E5000211C8146504606F02EFF011C484606F034
:100E600010FF02998146009806F025FF011C4846B4
:100E700006F00AFF0021814606F054FF002800D149
:100E80008DE080231B0643449A4680231B069C4624
:100E9000009D4B445146281C99466744664406F021
:100EA0000AFF391C041C039806F005FF011C201CD6
:100EB00006F0EAFE311C041C049806F0FCFE011C3E
:100EC000201C06F0DEFE0199041C484606F0F3FEE5
:100ED000011C201C06F0D8FE41468346039806F00C
:100EE000EAFE391C041C281C009506F0E4FE011CD7
:100EF000201C06F0C9FE0199041C301C06F0DBFE24
:100F0000011C201C06F0C0FE4946041C049806F093
:100F1000D2FE011C201C06F0B7FE5146051C0498A9
:100F200006F0C9FE0199041C381C06F0C4FE011C21
:100F3000201C06F0A6FE311C041C009806F0BBFE27
:100F4000011C201C06F0A0FE4946041C039806F074
:100F5000B2FE011C201C06F097FE0199041C4046BD
:100F600006F0A9FE391C8046049806F0A4FE011C78
:100F7000404606F086FE311C8046039806F09BFE34
:100F8000011C404606F07DFE49468046009806F06A
:100F900092FE011C404606F077FED0460290414684
:100FA000404606F088FE391C8246381C06F083FE57
:100FB000011C504606F068FE311C8246301C06F0CB
:100FC0007AFE011C504606F05FFE494682464846BE
:100FD00006F071FE011C504606F056FE06F0F4FEC7
:100FE000011CFE20800506F052FE8146011C404691
:100FF00006F061FE49468046381C06F05CFE494614
:10100000071C301C06F057FE5946061C584606F0D1
:1010100052FE291C8146281C06F04DFE011C484644
:1010200006F032FE211C051C201C06F044FE011CAB
:10103000281C06F029FE0299041C081C06F03BFE41
:10104000011C201C06F020FE0021041C06F07DFE81
:10105000002806D10021201C06F06AFE002800D1DD
:101060007FE20799404606F00CFEF64906F00FFEB7
:101070000C99041C381C06F004FEF24906F007FE29
:101080000899071C301C06F0FCFDEF4906F0FFFD37
:10109000EE49051C201C06F00EFEED49061C381C0E
:1010A00006F009FE011C301C06F0EEFDE949061CA5
:1010B000281C06F000FE011C301C06F0E5FDE4498A
:1010C0001390201C06F0F7FDE349061C381C06F0BF
:1010D000F2FD011C301C06F0D7FDE049061C281C5F
:1010E00006F0E9FD011C301C06F0CEFDD949149034
:1010F000201C06F0E0FDD949041C381C06F0DBFD7D
:10110000011C201C06F0C0FDD549041C281C06F05B
:10111000D2FD011C201C06F0B7FD00211590099896
:1011200006F0C9FD0021041C0A9806F0C4FD011C4C
:10113000201C06F0A9FDCB49041C0B9806F0BBFD52
:10114000011C201C06F0A0FDC74906F0B4FD13AA3F
:10115000011C0EA8FFF710FC0A2001F041FF00223D
:101160000121C24B49421A60C14B1B681800009311
:1011700001F096F90121BF4B49421B68180000930A
:1011800001F08EF9BC4ABD4B12681C680792BA4A3E
:101190005D6852689E680C92B74ADB6892680021CD
:1011A0000892B44A00931268002301920198002229
:1011B00000F0F0FEAE4A002312680021019201986F
:1011C000002200F0E7FE0021201C06F074FD002143
:1011D000071C281C06F06FFD8046011C381C06F019
:1011E00053FD311C06F050FD011C06F04DFDA146DB
:1011F000009B041C191C181C06F05DFD4946AB46FB
:10120000051C4846019106F056FDB2465946061C9B
:10121000584606F050FD011C301C06F035FD5146C5
:10122000061C504606F047FD011C301C06F02CFD44
:10123000011C281C06F025FD0021061C06F03BFDC4
:1012400000998146081C06F01FFD5246051C00212E
:101250005046039206F02FFD5B468246011C58461D
:10126000049306F00EFD291C06F025FD0199834626
:10127000201C06F020FD494606F006FD011C5846DC
:1012800006F002FD01990990504606F0FAFC291C6F
:1012900006F011FD211C8246049806F00CFD49461B
:1012A00006F0F2FC011C504606F0EEFC41460A90A6
:1012B000381C06F0E6FC291C06F0FDFC211C051C70
:1012C000039806F0F8FC311C06F0DEFC011C281C1B
:1012D00006F0DAFCFC21654B89050B90186806F0D6
:1012E000EAFC051C06F092FD0021061C06F0E3FC5A
:1012F000041C281C06F078FD00218046201C06F006
:10130000DAFC211C071C06F0BFFC211C06F0BCFC0B
:10131000011C06F0B9FC211C814606F0CCFC4146BC
:101320008246404606F0C7FC211C051C201C06F026
:10133000C2FC011C06F0A8FC311C8346301C06F0E0
:10134000BAFC011C584606F09FFC011C281C06F044
:1013500098FC0021834606F0AEFC4146051C404641
:1013600006F092FC59468046504606F08DFC291C3A
:101370000290504606F088FC311C82460590484693
:1013800006F099FC291C06F07FFC391C83460D9061
:10139000201C06F076FC414606F08DFC311C051C35
:1013A000381C06F06EFC414606F085FC514606F0FE
:1013B0006BFC02998246281C06F066FC5946814661
:1013C000281C06F061FC002106F075FC8346011C18
:1013D000484606F056FC5146051C584606F051FC9E
:1013E000002183460690504606F065FC00218246A7
:1013F000484606F060FC011C504606F042FC291CE1
:101400008146281C06F057FC59468246584606F08D
:1014100052FC011C504606F037FC494682464846BD
:1014200006F049FC011C504606F02EFC824606F0F0
:10143000C1FC134A134B05F07DFF002801D0FFF7D4
:1014400081FB21E08FC2753C8FC2F53BDAD74B3868
:10145000529EF535B946F435D29E5C3881037F360D
:10146000CDD88638CDCC1C412DB29D3D70310220A7
:10147000702D00207C2D0020583000208431022067
:101480009A9999999999B93F211C381C06F0F9FB52
:10149000414606F010FC0299041C06F0F5FB391CCD
:1014A000051C301C06F0EDFB414606F004FC0599D6
:1014B00006F0EAFB0D99061C201C06F0E5FB002156
:1014C00006F0F9FB311C041C06F0DBFB211C8146F5
:1014D0000590281C06F0D5FB0021041C301C06F0EA
:1014E000EAFB0021061C281C06F0E5FB011C301C51
:1014F00006F0C7FB0021061C06F0DDFB071C011CE3
:10150000201C06F0BEFB4946051C381C06F0B9FB42
:10151000002180460690484606F0CDFB0021071CBE
:10152000201C06F0C8FB011C381C06F0AAFB291C75
:101530008146281C06F0BFFB4146071C404606F0CA
:10154000BAFB011C381C06F09FFB4946071C4846A5
:1015500006F0B1FB011C381C06F096FB8246FFF733
:101560000DFB201C06F030FC7BE5C04670B582B058
:1015700006F070FFFA20400003F0C2F90523284E60
:1015800000933000274A2849013B09F029FB041E3B
:1015900041D1012000F0E4FD244B1E2518600120FC
:1015A00000F0DEFD224B1860012000F0D9FD012380
:1015B00080225B421F490093520000231E48019481
:1015C00001F02AF980220194009533681B495200EA
:1015D0001B4801F021F9802200231A4952001A48C1
:1015E0000194009501F018F9802200231749520058
:1015F00017480194009501F00FF980220023154946
:10160000520015480194009501F006F901F044FAE2
:10161000200002B070BD114809F0EEFCF8E7C046AA
:10162000A41C0020801A0600D00F0020702D00207E
:101630007C2D0020A4C3001049050010B4C3001085
:1016400069050010C4C300104D040010D0C3001081
:10165000350B0010E0C30010550300108CC30010C0
:101660007047C046000000000000000000000000BD
:101670000B4A13681868203080F30988022080F331
:101680001488BFF36F8F3FBCAE4608BC04BC62B683
:101690001847C046C046C046C046C046C046C046C1
:1016A000B82D002000000000000000000000000035
:1016B000EFF30980164B1A6820381060F0C04446DA
:1016C0004D4656465F46F0C00D221207146E556E09
:1016D000566F176F3038F0C008B572B601F0BCFC19
:1016E00062B60CBC116808681030F0C8A046A94664
:1016F000B246BB4680F309880D2212073038F0C885
:101700001466556656671767F0C81847C046C04646
:10171000B82D002010B503F0A5FFC04610B58024F9
:10172000031F64041C60043B19600349043B1960F7
:10173000143B40381A6010BD151700108022044B6E
:1017400052051A60BFF34F8FBFF36F8F7047C046CB
:1017500004ED00E072B6044A136801331360BFF36E
:101760004F8FBFF36F8F70479C300220094A136878
:10177000013B1360002B0CD1074A1168002907D0E8
:1017800006480068BFF35F8F0B6080F3108813601A
:1017900062B670479C3002204C300020843002201A
:1017A000EFF3108072B6704780F310887047C04620
:1017B00010B5FFF7F5FF040001F072FA002803D01E
:1017C0008022034B52051A602000FFF7EDFF10BD89
:1017D00004ED00E0002310B5084A094C0520236001
:1017E000136003F0C7FDFA21890005F0DFFA054B0D
:1017F000013818600723236010BDC04618E000E0E0
:1018000010E000E014E000E0FF22154B120419681C
:1018100010B50A431A60FF220220196812060A4313
:101820001A601049404202F01BF901200E49404263
:1018300002F016F905200D49404202F011F9FFF7B8
:10184000C9FF00220A4B1A60D0231B061A68094BF5
:101850001A70FFF70DFF01F0FFFB03F003FFC04616
:1018600020ED00E0B1160010B11700106116001055
:101870009C300220F00E0020D02310B51B06186803
:10188000074B1B78834200D010BDEFF30583002B7C
:1018900002D05B00C018F7E701F0FEFDF4E7C04698
:1018A000F00E002000B5144B83B01A78D0231B062D
:1018B0001B689A4209D00368BFF35F8F00221A6049
:1018C00081F3108820BF03B000BD03680B4A13608A
:1018D0000B4A11600B4A0221944663449B10FF316E
:1018E0009940094B0122186801235B420093090AC1
:1018F000002300F025F9E6E7F00E00204C30002030
:101900008430022000FFFF2F0431022000B51C4A62
:101910000B001178D0221206126883B0914209D0D0
:1019200040BF0268BFF35F8F0021116083F310880E
:1019300003B000BD02210068124AFF3182189210E4
:101940009140090ABFF35F8F0022026083F3108881
:10195000EFF30583DBB2002B0DD00B4B019218681F
:1019600001AA00F091F9019B002BE1D08022074BE6
:1019700052051A60DCE7044B186800F03DF9D7E720
:10198000F00E002000FFFF2F0431022004ED00E0E4
:10199000F0B5CE46474680B51D00344B14001A788A
:1019A000D0231B061B688146884683B09A420FD01D
:1019B0000368BFF35F8F00221A6081F31088200054
:1019C000290002F0B7FF03B00CBC90469946F0BD69
:1019D00003F084F822002B000127121A8B41244EB9
:1019E0007F42B6185F41002F20DC1BD04B461B689E
:1019F000BFF35F8F00221A6088F310881D4B5A6A6C
:101A0000954205D89B6A0120A342DCD29542DAD1E7
:101A10008022194B52051A60BFF34F8FBFF36F8FAF
:101A20000020D0E7FA239B009E42DFD3FA22002356
:101A300030003900920005F0DFF9031ED6D04A4687
:101A4000404612680D490A600D4908600D498C46F0
:101A5000022162449210FF3191400B4A090A10683A
:101A600000930122002300F06BF8C7E7F00E00207E
:101A700018FCFFFF0040054004ED00E04C30002062
:101A80008430022000FFFF2F0431022010B500F047
:101A90004BF8014B186010BD04310220F8B5DE464A
:101AA00057464E464546E0B505000C00070001F0DC
:101AB000E3F829682E6921430C372960B7422AD000
:101AC00000239B468023DB049A4680235B049946CF
:101AD00080239B0498460EE019420AD04C462242CD
:101AE00002D05A461A4393464346194301F03CFC40
:101AF0002968B7420DD03000544602687668130258
:101B00001B0A2242E8D00C001C40A342E6D0B74298
:101B1000F1D15B469943296001F0A8F93CBC90469D
:101B20009946A246AB46F8BD10B51C2002F07CF8E1
:101B3000041E03D0002308C000F0B0F8200010BD40
:101B4000F0B5C646060000B50D0090461F0001F036
:101B500093F83468002F0AD125420CD04346002B5D
:101B60000CD02300AB43336001F080F908E02B0078
:101B700023409D42F2D0069B002B05D101F076F95F
:101B8000200004BC9046F0BD4346002B16D18021B6
:101B90000023C904002F00D11900069A2943301DE3
:101BA00001F0B6FA01F062F900281CD001F036FD10
:101BB0000400830107D52402240AE1E7A021802341
:101BC000C9045B04E6E7FFF7C5FD3468002F0DD1BB
:101BD0002C4205D04346002B02D02300AB43336098
:101BE000FFF7C4FDE7E7FFF7A9FDDFE723002B4080
:101BF0009D42F5D1EEE7C046F8B5DE4657464E4663
:101C00004546E0B505000F00060001F035F82968EB
:101C10002C6939430C362960A6422AD00023984605
:101C20008023DB049B4680235B049A4680239B042D
:101C300099460EE019420AD057463A4202D042462F
:101C40001A4390464B46194301F08EFB2968A64281
:101C50000DD020005F460268646813021B0A3A42F6
:101C6000E8D00F001F409F42E6D0A642F1D1434684
:101C70009943296001F0FAF828683CBC90469946DF
:101C8000A246AB46F8BDC04610B513000A000100DD
:101C9000014801F0D1FE10BD9D1A00100300012281
:101CA00008334360C36003610023524282600360D3
:101CB0007047C046002303617047C046030030B53B
:101CC0000C680833621C0DD01A005B681D68A542C1
:101CD000FAD94B60996003688A60013351600861EA
:101CE000036030BD02695368F3E7C0460369416889
:101CF00082688A6051605968814206D00022026180
:101D00001A68013A1A60186870475A60F6E7C046C8
:101D1000F0B5DE464E4657464546E0B585B006006E
:101D2000FFF718FD4523F45C64B2002C21DD213B54
:101D3000994621339B46B14409E0AB6BEA6B0396AD
:101D4000934245D3013CE3B264B2002B11D0B56C91
:101D5000002DF2D1736A002B0BD0484601F098FA9F
:101D60000028EFD001F092FB013CE3B264B2002BFB
:101D7000EDD14523FF22F254FFF7F8FCFFF7EAFC10
:101D80004423F45C64B2002C16DD3500103504E009
:101D9000013CE2B264B2002A0ED03369002B0BD0B2
:101DA000280001F075FA0028F2D0013C01F06EFB2A
:101DB000E2B264B2002AF0D14423FF22F254FFF7CA
:101DC000D5FC05B03CBC90469946A246AB46F0BD5A
:101DD0005B462A6CEF5CAB6B7FB29846002A13D14E
:101DE0002B680193002B30D000239A4643460133E1
:101DF000AB637B1C17D16B6A002B1DD15346002BA4
:101E0000A0D001F043FBAFE7686803A906F028F90A
:101E10002A6C6B689446AA6863446B609342E3D370
:101E20002B686B60E0E700F035FFB842E6D95B460F
:101E300001377FB2EF54E1E72800243001F028FA9F
:101E40000028DBD001F022FB8EE7A86801F074FBCC
:101E5000019B8246AB60C9E7F0B5C64600B5846C0D
:101E600082B0A36BE26B00250190934204D328005B
:101E700002B004BC9046F0BD4523226CE65CA76B23
:101E800076B2002A1CD0606801A906F0E9F8226C3D
:101E900063689446A26863446360934214D32368E2
:101EA00063600137A763731C13D1636A002BDED014
:101EB0002000243001F0ECF90028D8D00125D6E725
:101EC00023689846002B0DD001370025A763731CAB
:101ED000EBD000F0DFFE8642C9D24523013676B250
:101EE000E654C4E7A06801F027FB43460500A36061
:101EF000D7E7C046F8B505000E001700002846D009
:101F00000B0C020C002B34D1331C002A35D13000CD
:101F10006843030055333AD8543001F085FE041E5F
:101F200035D00300002E00D054332360E5632664CF
:101F3000FFF710FC216CE36B22684B43D0185B1A4F
:101F4000D3186260E3600025FF234422A0602000D4
:101F5000A563A3540132A3541030FFF79FFE200065
:101F60002430FFF79BFEFFF701FC5023E754A564E4
:101F70000EE0002A0BD11A1C031CB0B2A9B24143D7
:101F800098B293B24343090C5B181B0CBFD00024DA
:101F90002000F8BDF0B5CE46474604001E000023E1
:101FA00080B585B0994601928846FFF7D3FBA36BB5
:101FB000E26B00274425934237D3022E72D0019B57
:101FC000002B00D18AE0002F68D0FFF7CFFB00F094
:101FD00053FEFFF7BFFB625D52B2531C01D14B466B
:101FE00063554523E25C52B2013201D14A46E254C4
:101FF000FFF7BCFB01A902A801F00EFA002800D0EF
:1020000074E0FFF7A7FBA36BE26B934234D0FFF7BA
:10201000ADFB2000FFF77CFE00F028FF0127FFF753
:1020200099FBA36BE26B9342C7D2226CA76BA56BA3
:10203000002A3CD04146002E00D084E0606806F0C3
:102040000FF8226C63689446A2686344636093420D
:1020500001D323686360A36C0135A563002B34D1E1
:10206000636A002B36D02000243001F011F90028DB
:1020700030D0FFF763FB2DE0FFF778FB20000199DC
:10208000103000F0F9FF2000FFF742FE00F0EEFEF6
:102090000028C3D1FFF752FB0127C0E702A801F0D7
:1020A000AFF992E7226CA76BA56B002A25D12368B4
:1020B00000209846002B40D0A36C0135A563002B6F
:1020C00035D0022E01D1002F04D12000FFF7C4FE2D
:1020D0000028CED1FFF74AFB012002E0FFF746FBC4
:1020E000002005B00CBC90469946F0BD2000FFF7DB
:1020F0000FFE00F0BBFE0020F3E74146E06805F06C
:10210000AFFFE168236C5A42CB1A2168E3608B422F
:1021100005D2A3689C466244E260022E9BD1002D4A
:1021200000D10135A36CA563002BCCD198E7636A7D
:10213000002B98D100289CD1CCE7A06801F0FCF9D5
:102140004346A360B8E7E06805F08AFFE168236CC6
:102150005A42CB1A2168E3608B42DED2D9E7C046EF
:1021600070B50600542001F05FFD041E2CD0002540
:1021700001230060C3630564FFF7ECFA216CE36B95
:1021800022684B43D0185B1AD3186260E360442284
:10219000FF23A0602000A563A3540132A354103094
:1021A000FFF77CFD20002430FFF778FDFFF7DEFA13
:1021B00050230022E654002100232000A564A560DE
:1021C0002560E560FFF7E6FE200070BDF8B54E46DD
:1021D000DE46574645460400E0B591461D000F0017
:1021E000FFF7DEFAA36BE26B0600934235D3022DB4
:1021F0000AD000243000FFF7D7FA20003CBC9046FC
:102200009946A246AB46F8BD4523E35C226C5BB21F
:102210009846A36B9B46A36B9A46002A44D1276835
:10222000002F65D053460133A3634346013330D1B9
:10223000A36C002B4DD0022D02D15B46002B0AD19E
:102240002000FFF709FE002805D04B46002B02D0E6
:1022500001234A4613600124CCE74523E35C226C4A
:102260005BB29846A36B9B46A36B9A46002AD6D0D6
:10227000002D19D13900606805F0F2FE226C636808
:102280009446A268634463609342CBD3236863603F
:10229000C8E700F0FFFC8045DDD24346452201330C
:1022A0005BB2A3540124A5E73900E06805F0D8FE2D
:1022B000E168236C5A42CB1A2168E3608B4203D257
:1022C000A3689C466244E2605346022D0CD0013361
:1022D000AAE7636A002BBED02000243000F0D8FFAC
:1022E0000028B2D1012485E7002B9DD101339BE763
:1022F000A06801F021F95346A760013394E7C04676
:10230000F0B5C646040000B50E00FFF749FAA36B0E
:10231000E26B050000279A4214D94522A75C0133DD
:102320007FB29046A3637B1C13D1A36C002B1AD001
:102330002000FFF791FD002813D0002E11D00123BB
:10234000012733602800FFF72FFA380004BC9046BD
:10235000F0BD00F09FFC874203D2434601377FB2B5
:10236000E7540127EEE7636A002BFAD020002430FF
:1023700000F08EFF0028E0D10127E3E7F0B54746E3
:10238000CE46040080B585B088460192FFF7E2F999
:10239000A76B002F5FD1019B002B3BD002A801F05F
:1023A0002FF80023442699464525FFF7DFF900F072
:1023B00063FCFFF7CFF9A35D5BB2013301D14B465C
:1023C000A355635D5BB2013301D14B466355FFF703
:1023D000CDF901A902A801F01FF8002822D1FFF7CA
:1023E000B9F9A36B002B2AD1FFF7C0F9200001999E
:1023F000243000F041FE2000FFF78AFC00F036FD9B
:1024000000283DD0FFF7A6F9A76B002F23D1019B31
:10241000002BCAD1FFF7AAF9002005B00CBC9046EA
:102420009946F0BD2000FFF773FC00F01FFDFFF799
:1024300091F9A36B002BEDD0FFF798F9E2E7FFF7D6
:1024400095F92000FFF764FC00F010FDFFF782F91A
:10245000A76B002FDBD0226C002A08D0E368991804
:10246000A368E16099420ED2404605F0F9FD013FB4
:10247000A7632369002B09D1FFF778F90120CCE786
:10248000FFF75CF9BEE72168E160EDE7200010305E
:1024900000F0FEFE0028EFD0FFF750F9ECE7C04651
:1024A000F0B5C6460023040000B584B098460191FB
:1024B000FFF750F9A36B002600274425002B3CD1E1
:1024C000019B002B00D178E0002F50D0FFF74EF990
:1024D00000F0D2FBFFF73EF9635D5BB2013301D13F
:1024E000434663554522A35C5BB2013301D14346A9
:1024F000A354FFF73BF901A902A800F08DFF0028C3
:1025000027D1FFF727F9A36B002B34D1FFF72EF962
:102510002368002B55D020000199243000F0ACFD39
:102520002000FFF7F5FB00F0A1FC002835D00127C3
:10253000FFF710F9A36B002BC2D0013BA363236804
:10254000002B50D02369002B44D1FFF70FF901264F
:102550001EE02000FFF7DCFB00F088FCFFF7FAF834
:10256000A36B002B10D0FFF701F90127E0E702A8C9
:1025700000F046FFAAE7FFF7F9F82000FFF7C8FBD5
:10258000012700F073FCD3E7FFF7F0F8002E08D125
:10259000300004B004BC9046F0BDFFF7CFF801272F
:1025A000C6E7FFF7D7F8616A002903D02021236B23
:1025B0001B68C91AA06800F0F1FFFFF7D7F80026E2
:1025C000E6E7FFF7C7F8A06800F06CFF0600FFF72A
:1025D000CDF8A0E72000103000F05AFE0028B4D05B
:1025E000FFF7ACF8B1E701F025F8A060AAE7C04614
:1025F00010B50400FFF7AEF8A46BFFF7B7F82000A2
:1026000010BDC04670B500290ED000260023374DFE
:10261000DA00AC186468844259D0002E05D001332A
:10262000082BF5D13160706070BDAC58002C4BD0D8
:102630005C1C072BF8D0E200AE187668B04246D09A
:10264000AE58002E47D09C1C062BEDD0E200AE18F1
:102650007668B0423BD0AE58002E3CD0DC1C052B37
:10266000E2D0E200AE187668864230D0AE58002E36
:1026700031D01C1D042BD7D0E200AE187668B042D2
:1026800025D0AE58002E26D05C1D032BCCD0E20006
:10269000AE187668B0421AD0AE58002E1BD09A1DE4
:1026A000022BC1D0D4002E197668B0420ED02C591E
:1026B000002C13D0012BB7D0EB6B984212D0AB6B30
:1026C000002BB1D107233822AE18A8E7D200AE18EC
:1026D00031607060A8E72300AE18A0E71300D200B5
:1026E000AE189CE73822AE18F2E7C04694310220BB
:1026F00070B5040016000D00FFF72CF84422A35C0F
:102700005BB2013301D10023A3544522A35C5BB229
:10271000013301D10023A354FFF728F8A36B002B4A
:1027200003D02000FFF7F4FA70BD2000320029002A
:10273000243000F04BFDF4E7F0B5C646124B00B56F
:102740009846124C124E134F15E0FFF703F843461C
:10275000DB68DD68281DFFF7C9FA3368013B336089
:102760002368013B2360FFF701F8286B01F09CFA16
:10277000280001F099FA2368002BE6D13B68012B71
:10278000F9D9FEF7DBFFF6E74C310220A430022036
:10279000A0300220CC2D002000221A4B70B51A4C1C
:1027A0001A60236819491B6B1A688A4202D159685A
:1027B000914220D020682168343108F019FC144D72
:1027C00014482B6800E0013B9900CA189200825817
:1027D000002AF8D0C9188900461872680831526872
:1027E000411872608A4203D0D26822602B6070BDAB
:1027F000F2687260F8E79A688A42DBD1DB6893423C
:10280000D8D1DCE76C310220B82D0020A5A5A5A504
:10281000B0300220CC2D0020F8B5CE4647469600B9
:1028200080B5804630000D00994601F0FDF9071E85
:1028300000D1CEE0702001F0F7F9041E00D1CFE006
:102840007022002105F006FC3200A5213800276324
:1028500005F000FC236B043E9C46072366449E4320
:10286000002D5FD034232A78E2542B78002B56D0E9
:1028700035236A78E2546B78002B50D03623AA783F
:10288000E254AB78002B4AD03723EA78E254EB7855
:10289000002B44D038232A79E2542B79002B3ED0E8
:1028A00039236A79E2546B79002B38D03A23AA791C
:1028B000E254AB79002B32D03B23EA79E254EB7936
:1028C000002B2CD03C232A7AE2542B7A002B26D0E2
:1028D0003D236A7AE2546B7A002B20D03E23AA7AF9
:1028E000E254AB7A002B1AD03F23EA7AE254EB7A17
:1028F000002B14D040232A7BE2542B7B002B0ED0DC
:1029000041236A7BE2546B7B002B08D04223AA7BD5
:10291000E254AB7B002B02D04323EA7BE2544323F7
:102920000022E254089D1F2D60D8271D3800E56263
:10293000E564FFF7BFF920001830FFF7BBF920234B
:102940005D1B4A46414630002461A5616462FEF782
:10295000E5FE099B2060002B00D01C60FEF7FAFE0C
:10296000404A414E1368013313603368002B48D04E
:102970003E4D2B68002B3BD03D4BE16A98463D4BCA
:102980001A6801321A603C4B62641A688A4200D2AB
:10299000196042468B005B189B00D1184A6890680A
:1029A000A260E0609068476097604246616141467E
:1029B000D2580132CA50FEF7D9FE2B680125002BF0
:1029C00009D03368DA6AE36A9A4204D2FEF7B6FEA7
:1029D00001E001256D4228000CBC90469946F8BDE7
:1029E0000125380001F060F96D42F4E71F259CE7EE
:1029F0003368E16ADB6A8B4200D834601C4B98462E
:102A0000BDE734601368012B04D0194BE16A984686
:102A1000164DB4E7164B98461D00A0239B00434477
:102A2000994628001435FFF739F9A945F9D1134B18
:102A300099461800FFF732F9114D2800FFF72EF9DB
:102A40001048FFF72BF91048FFF728F90F48FFF758
:102A500025F94A460E4BE16A1A600E4B1D60034D84
:102A60008DE7C046A0300220B82D0020343102206E
:102A7000CC2D0020AC300220B0300220DC3002200F
:102A8000F0300220203102204C3102203831022067
:102A9000C02D0020C42D0020F8B58020CE4647462A
:102AA000C00080B501F0C0F8051E79D0702001F09B
:102AB000BBF8041E00D179E07022002105F0CAFAAB
:102AC0008022A52128002563D20005F0C3FAFF2249
:102AD00092009446236B382263441D0007239D43D4
:102AE000524B261D63630023A3540B32A3543000C2
:102AF000E362E364FFF7DEF820001830FFF7DAF84E
:102B0000202300224A49A361280024616462FEF761
:102B100005FE484B20601C60FEF71CFE464A136809
:102B200001331360454B98461B68002B4CD0444D35
:102B30002B68002B3ED0E16A424F434B1A680132AA
:102B40001A60424B62641A688A4200D219608B0094
:102B50005B189B00F9184A689068A260E060906872
:102B600046609660FA5861610132FA50FEF7FEFD48
:102B70002B68002B05D043461B68DA6AE36A9A4249
:102B80002BD300F013FF01280AD172B60122304B7B
:102B900052421A6000222F4B28601A60FEF734FE62
:102BA0002D4B1B680CBC90469946F8BD280001F0DF
:102BB0007BF8F5E743461B68E16ADB6A8B4201D884
:102BC00043461C601F4FB8E743461C601368012B47
:102BD00006D0E16A1B4F1A4DAFE7FEF7AFFDD0E715
:102BE000A023184F9B0099463D00B9442800143596
:102BF000FFF754F84D45F9D1184B99461800FFF7E7
:102C00004DF8174D2800FFF749F81648FFF746F82A
:102C10001548FFF743F81548FFF740F84A46144BAC
:102C2000E16A1A60134B1D60054D86E749444C4527
:102C30003927001008310220A0300220B82D0020D2
:102C400034310220CC2D0020AC300220B0300220E4
:102C50001431022060310220F40E0020DC3002200A
:102C6000F0300220203102204C3102203831022085
:102C7000C02D0020C42D0020024A136801331360C8
:102C80007047C046A8300220014B18687047C04604
:102C900060310220014B18687047C046A030022006
:102CA000F0B5DE4657464E464546E0B5644B83B028
:102CB0001B68002B00D0A1E0624B1A6801329046DD
:102CC0001A60002A60D0604B9B465B461B689845A3
:102CD00072D35E4B99461B681B68002B00D1AAE09B
:102CE00000235B4E01935B4BB4469A465A4D39E044
:102CF000002159611168013911609A6A002A0FD0C8
:102D0000D969186A56688860186A416019001831D4
:102D10008E4200D170E00021996211680139116082
:102D20005246D96A1268914201D9524611608A000E
:102D300052189200AE18706887689860DF608768E4
:102D40007C6084605E61AB580133AB5063461B68A6
:102D5000DB6A994201D9012301934B461B681B682A
:102D6000002B62D04B461B68DB68DB685A689045D5
:102D700057D35A699868D9681C1D816048605068AB
:102D8000A042B5D15160B3E7304B344A196810689E
:102D90001860116032490A6801320A601A681268C4
:102DA000002A37D1284B9B4601235A465B421360C9
:102DB0005B461B6898458CD20023274D244E019317
:102DC0003368DA6A93009B189B00EB58012B01D9FA
:102DD00001230193234B1B68002B18D0224B1B6847
:102DE000002B01D001230193019803B03CBC904615
:102DF0009946A246AB46F0BD50608CE7194A13686D
:102E00000133136008F0F6F800230193ECE708F0B3
:102E1000F1F8E3E71B680C4ADB6893461B68136014
:102E200053E75B4666461A60CAE7664601235A4680
:102E30005B421360C4E70023074D054E0193F5E79D
:102E4000A83002206031022014310220C02D002061
:102E5000B82D0020B0300220CC2D0020C42D002041
:102E6000183102201C3102206C310220F0B5DE4600
:102E700057464E464546E0B583B0FEF76BFC4E4BD9
:102E80001A68013A1A601B68002B61D14B4B1B6812
:102E9000002B5DD04A4B98461B68002B00D188E080
:102EA000484B494F9B4600239A4601339946474E6B
:102EB000474D01974346DB68DB68D969186A9A6A0F
:102EC00088601C6A61601900546818318C426ED0A9
:102ED000514699621168013911605A699868D96838
:102EE000546881604860181D84425ED011680139C1
:102EF00011603168DA6A8A4200D93260910089181B
:102F000089008C466C1861688F689960DF608F68F3
:102F1000786088605C6163466146EB5801336B50B2
:102F20005B461B68DB6A9A421DD94B46019A1360C7
:102F300043461B68002BBDD1264B17001A68126848
:102F4000002A1AD01B68DB681A68234B1A6017E046
:102F50000024FEF70BFC200003B03CBC90469946D1
:102F6000A246AB46F0BD43461B68002BA2D1194BCD
:102F7000019F1A681268002AE4D1174B013A1A60BF
:102F8000164E3468002C09D00125FFF789FE002871
:102F900000D03D60013C002CF7D134603B68002B31
:102FA000D6D0FEF7CBFB0124D3E751609EE75060FB
:102FB0008EE7054FE4E7C046A8300220A03002208B
:102FC00020310220B82D00206C310220B0300220C8
:102FD000CC2D0020C02D0020143102201C310220F5
:102FE00070B5041E1DD0164A136801331360154BCB
:102FF00000211E686D23144DA4192A682868D15435
:103000000430FEF773FE2B685C60A6420CD90F4BB0
:10301000186829680431FEF751FEFFF727FF0028E2
:1030200001D1FEF78BFB70BD094B1868296804318C
:10303000FEF744FE074B1A689442EED21C60ECE7A0
:10304000A830022060310220B82D0020C42D0020BD
:10305000C02D002014310220054B10B51B68002B39
:1030600003D00122034B1A6010BDFFF795FBFBE76D
:10307000A83002206C31022070B51F4D0C00296869
:103080001831FEF71BFE1D4B00211E686D232A68B8
:103090002868D1540430FEF729FE631C17D02B6832
:1030A000A4195C60A64206D9154B1868296804313A
:1030B000FEF704FE70BD134B186829680431FEF753
:1030C000FDFD114B1A689442F4D21C60F2E70F4BDD
:1030D00029685A6890688A602968C8602968906879
:1030E000043141602968043191602A6853611A688B
:1030F00001321A60DEE7C046B82D002060310220A0
:10310000C42D0020C02D00201431022038310220AF
:10311000802370B5274C15001B0622680B43936172
:10312000436822689968D3612268116222689968AD
:1031300018324A602268002118329A602368986227
:103140000368013303601C4B1E686D2322682068EE
:10315000D1540430FEF7CAFD6B1C17D02368AD199B
:103160005D60AE4206D9154B186821680431FEF740
:10317000A5FD70BD124B186821680431FEF79EFD55
:10318000104B1A689542F4D21D60F2E70E4B21688D
:103190005A6890688A602168C86021689068043124
:1031A0004160216804319160226853611A680132DC
:1031B0001A60DEE7B82D002060310220C42D002007
:1031C000C02D0020143102203831022070B52A4C65
:1031D00043680D0021689E68CB6121680E622168FA
:1031E0009E6818317160216818319960236898626F
:1031F000036801330360214B002A1CD01B680021A7
:103200006D2322682068D1540430FEF76FFD1C4BFB
:1032100021685A6890688A602168C860216890684F
:1032200004314160216804319160226853611A6859
:1032300001321A6070BD1E686D2321682068CA546F
:103240000430FEF753FD2368AD195D60AE420BD824
:103250000C4B186821680431FEF730FD0A4B1A68E0
:103260009542E7D21D60E5E7084B186821680431F4
:10327000FEF724FDDEE7C046B82D002060310220B5
:1032800038310220C02D002014310220C42D00202E
:10329000C368F0B5DB68D869196A9A6A81604860CA
:1032A000180054681830844245D000219962116892
:1032B00001391160264A1268002A2CD19968D86811
:1032C0005A698860D8681D1D41605168A94234D090
:1032D0001168013911601F4AD96A1068814228D8E3
:1032E0008A001D4C52189200A61870688768986072
:1032F000DF6087687D6085605E61A3580133A350FD
:10330000164B00201B68DB6A8B4203D20122144B50
:1033100001301A60F0BD134A51688C68D9611C6293
:103320008C686060886011689A6201311160D96AA6
:10333000E6E71160D4E75160B7E7116850600139E2
:103340001160044AD96A10688142C9D9F1E7C046C0
:10335000A8300220B0300220CC2D0020B82D002053
:103360006C3102202031022080231B06F0B50B4374
:103370008468416802690360C3688C608468616026
:103380005168814230D0002101611168D86801394B
:10339000116099685A698860D8681D1D416051683C
:1033A000A94223D0116801391160114AD96A106805
:1033B000814200D911608A000E4C52189200A61862
:1033C000706887689860DF6087687D6085605E618F
:1033D000A3580133A350084B1B68DB6A994202D9FA
:1033E0000122064B1A60F0BD5460CCE75060D9E76B
:1033F000B0300220CC2D0020B82D00206C310220EE
:10340000034B1B680360034B1B6843607047C04657
:103410001831022060310220F8B50E000700FEF7D7
:1034200099F96D23164C174A21681568ED5C002D3B
:1034300007D0002101241268D154FEF797F920002B
:10344000F8BD33685A1C19D00F487A68844605685D
:103450003868A84205D08A4203D80023012433608B
:10346000EBE78D1AAB42F8D95B1A9B1833606346C1
:103470001B683B60236800247B60DEE70024DCE7F8
:1034800060310220B82D0020183102200122014BAA
:103490001A6070476C310220014B18687047C046B3
:1034A000B82D0020F8B5041E21D0204DC26A2B682B
:1034B000DB6A9A4214D28369002B04DB2B68D96A39
:1034C00020235B1A836193009B18194E9B0062694D
:1034D000F3189A420DD02B680120DB6AE36205E005
:1034E0002B68C06CDB6A984280414042F8BD0020E6
:1034F000FCE7271D3800FEF7F9FB2B68DA6A0D4B55
:10350000E26219688A4200D91A6093009B189B00F6
:10351000F1184A689068A260E06090684760976020
:10352000F258616101320120F250DFE7B82D00202E
:10353000CC2D0020B030022070B5041E08D0036DE1
:10354000C26AC16C013B03658A4201D0002B01D0E5
:10355000002070BD051D2800FEF7C8FB2023E26C8B
:103560009B1AA3610B4BE26219688A4200D91A6068
:10357000930009499B189B00C81842689668A2608E
:10358000E660966875609560CA58606101320120F6
:10359000CA50DEE7B0300220CC2D002070B5041EEA
:1035A00008D0C36C8B4206D3E26A9A4202D0216DE6
:1035B000012905D070BDE26A0B009A42F7D1F9E704
:1035C000A169E362002902DB2021CB1AA3619300E9
:1035D0009A18104D92006369AA189342EAD1261DE9
:1035E0003000FEF783FB0C4BE26A19688A4200D96F
:1035F0001A6093009B189B00E9184A689068A260C3
:10360000E060906846609660EA5861610132EA5075
:10361000D0E7C046CC2D0020B0300220044B1A6801
:10362000196890691A682023C96A5B1A9361704708
:10363000B82D0020044B1A68002A03D019680A6DBF
:1036400001320A6518687047B82D0020F0B5CF4BDD
:10365000DE4657464E4645469B46CD4BE0B599461D
:10366000CC4B89B09A465B461B681C68002C00D185
:1036700091E0DB681C68FFF7FFFAFFF705FB4B469C
:103680001B680500834200D996E04B4618608442CF
:1036900000D82BE10022C04B611B1B68180001936E
:1036A000FFF726F8FFF7E2FB00285BD02826BA4B8D
:1036B00000221B6804A918000193FEF75FFE002892
:1036C000D1D0049B0193002B57DB069D6B69002B27
:1036D00002D0281DFEF70AFBFFF7D6FA4B461B68FF
:1036E0000190984200D2B1E04B46019A1A60049BC7
:1036F000092BDCD8A94A9B00D3589F460123A85D1B
:1037000005990343AB55AA69019C8B186B602D6129
:10371000A34200D9DFE0611A8A4218D8410700D5D8
:103720001BE101239843A85528002B6A9847BEE760
:103730000122AB5D01991343AB55059B2D615A18CE
:10374000AB616A608A4200D9CAE0002BAFD0534611
:10375000291D1868FEF7B2FAA9E70122AB5D934371
:10376000AB55A4E7FDF7EAFFA0E7AB5D9A0700D4ED
:10377000E9E001229343AB5599E7079B0193069B30
:1037800001990293059B029803939847049B019328
:10379000002B8CDB99E7FFF76FFAFFF775FA4B46C2
:1037A0001B680500984207D34B461D6053461B68B3
:1037B0001A6853425A416EE75B461B681A68002A32
:1037C00039D0A8460BE0012293432732A354236A41
:1037D000200098475B461B681A68002A2AD0DB68DD
:1037E000DC681F68251D2800FEF780FA28230422C4
:1037F000E35C1A42E7D0A3692461FE18FF436660C8
:103800009F420AD33700FF43236A20009847A369E9
:103810002461F6186660BB42F4D953462900186843
:10382000FEF74CFA236A200098475B461B681A682B
:10383000002AD4D1454651465A460968116052467D
:1038400013604B461D60FFF711FB2FE75B461B68BB
:103850001A68002A38D002950AE001229343A35542
:10386000236A200098475B461B681A68002A2AD002
:10387000DB68DC681F68231D18009846FEF736FADF
:103880000422A35D1A42E8D0A3692461DD19FF4335
:1038900065609F420AD32F00FF43236A20009847A8
:1038A000A3692461ED186560BB42F4D953464146D3
:1038B0001868FEF703FA236A200098475B461B68E6
:1038C0001A68002AD4D1029D51465A4609681160EF
:1038D0005246136008E7A14202D9994200D81DE779
:1038E0005B46291D1868FEF7E9F9E0E6FFF7BEFA26
:1038F0005B461B68DB68DE68331D18009846FEF7E0
:10390000F5F92822B35C59070DD401218B43B35438
:103910003000336A9847C9E62C1BA34217D8300001
:10392000336A98473C00B3693661E7187760AF4265
:10393000F2D9AC4201D9BC42F1D95B464146186884
:10394000FEF7BCF9E4E7280000F0AEF9AFE6534615
:1039500041461868FEF7B2F9DAE7019F07E0FB1A63
:103960009A421DD82B6A280098472300AA69D418C8
:103970006C602D61A742F2D29F4201D2A342F1D9DD
:103980005B46291D1868FEF799F9CDE6BC2D00208D
:103990000C310220C82D002064310220ECC300103D
:1039A0005346291D1868FEF789F9BDE670B582B047
:1039B000FDF7D0FE174C2368002B12D0FDF7D6FE82
:1039C00023680020002B0AD0134B802201931F2371
:1039D0001249009312480023D200FEF71DFF02B0E7
:1039E00070BD104E3000FEF759F90F4D2800FEF75C
:1039F00055F90E4B00221E600D4B10210A201D6050
:103A0000FEF778FA20600028D8D00A49FEF7FAFDC0
:103A1000D4E7C04664310220683102201CC4001083
:103A20004D360010B4300220C8300220BC2D0020DA
:103A3000C82D002014C4001010B514001A00022371
:103A400084B05B420093054B01900291186869466F
:103A500000230394FEF7BAFB04B010BD64310220CA
:103A6000F8B50D00EFF3108772B60C4B10309B6861
:103A700084001E59B14205D0094B9E420BD3094B1D
:103A80009E4208D2054B9B681D51BFF35F8F87F3A1
:103A900010883000F8BD01F0EBFDF3E700ED00E029
:103AA000C0010010CC010010024B18688007C00F45
:103AB0007047C04600C00640F8B5EFF3108772B6F5
:103AC0000E4E3368002BFCD0BFF35F8FCB08C418B9
:103AD0000725A446C45C01230D40AB4018002040DC
:103AE000234208D1624623431370BFF35F8F3060D7
:103AF00087F31088F8BD100001F09CFD2C0100D068
:103B0000F8B5CE4647468C4680B5EFF3108872B6BE
:103B1000214D2C68002CFCD0BFF35F8F9A422CD82B
:103B2000D4080721055D0619012411408C402C4260
:103B30001FD007218946063909E0D408055D06191A
:103B40004C460F001440A7403C002F4211D00132D8
:103B50009342F2D201204042BFF35F8F00220E4B0E
:103B60001A6088F3108800280FDB0CBC9046994639
:103B7000F8BD2C4310003470EEE7BFF35F8F0023D5
:103B80002B6088F31088012040426346002BECD064
:103B9000089801F04FFDC0462C0100D070B5EFF33E
:103BA000108672B60A4C2368002BFCD0BFF35F8FDF
:103BB00007230122CD0819408A40435D93434355B2
:103BC000BFF35F8F0023236086F3108870BDC0466B
:103BD0002C0100D00021044B044ABFF35F8F02C3C5
:103BE0009342FAD17047C046000100D0800100D056
:103BF000044A1078431CDBB2172B00D91023137032
:103C00007047C046F80E002000B5054B83B0010098
:103C1000009318221F230348FFF772FF03B000BD73
:103C200024C400100418002070B5072504000542C4
:103C300005D00300AB430833834217D91C00FFF7BC
:103C40001BF8154B1D68002D20D0002C17D0134AEF
:103C5000134913681C198C4211D8A3420FD2ED18D6
:103C60001460FFF703F9002D0ED10AE0FFF704F806
:103C7000094B1A68002A02D10A4AAA431A60FFF7C0
:103C8000F5F807F0B3F90025280070BD0722054DAF
:103C900095431D60D9E7C046B42D002010310220A5
:103CA000F7FF01008B3000207047C046094A8300AF
:103CB00094464022634410B51C68C0006240C02492
:103CC00014408022520113431C60034B9C46604405
:103CD000416010BD04C00140004001400A4B80001B
:103CE0009C4604236044002901D00C230821002AAB
:103CF00000D10B00026853400C221A4080235B0164
:103D0000184302607047C04604C001400123D0221E
:103D10008340120693629361094A830094464022CD
:103D200063441968C0004A40C021114080225201FA
:103D300013431960034B9C4605236044436070475E
:103D400004C001400040014001238340002904D009
:103D5000034A1360034A13607047034A1360FBE78A
:103D600080E200E000E100E080E100E00123834028
:103D7000014A13607047C04600E200E0084B103073
:103D80009B688000C358002B07D0064A00209B1A6E
:103D90002F229A424041C0B270470020FCE7C04643
:103DA00000ED00E0FC0E0020024B10309B6880000C
:103DB000C058704700ED00E070B50D00EFF31086BD
:103DC00072B60F4A1368002BFCD0BFF35F8F0D4B08
:103DD00010309B6884001B590B4A934203D09D42CC
:103DE00001D001F045FC074B9B681D51BFF35F8F6D
:103DF000BFF35F8F0022024B1A6086F3108870BDFC
:103E0000240100D000ED00E0CD010010F0B55746D0
:103E10004E464546DE46E0B5894683B005001700AC
:103E2000EFF3108A72B65E4A1368002BFCD0BFF322
:103E30005F8F00205B4B18569B46002800DA6CE031
:103E40005A464400584E2418A400331998469B79CA
:103E500010351370554BAA009B6801929B589C46E5
:103E60009B1B2F2B28D8012261469143CB79BB4263
:103E700008D86AE053009B189B00F318DD79BD4217
:103E800051D9190006228A56002AF3DA0B1D9B46E7
:103E9000474E43465C46043B1B1B1B05454C5B0DD4
:103EA00023438B80887141468A714A46424B8E80FB
:103EB0000B60CF718A601BE0404B9C4542D142466B
:103EC0003F4B023413803F4B3619043B9E1B360593
:103ED000384B760D1E433C4B56809380FF23D771A1
:103EE000937143464A469A60012342461A439446D8
:103EF00061462E4B019A9B689950BFF35F8FBFF3C9
:103F00005F8F0022264B1A608AF3108803B03CBCF6
:103F100090469946A246AB46F0BD01F0A9FB5B4630
:103F2000002018568CE70B1D9B468B8804345B05DC
:103F30001B155B4436199E1BE0233605760D1B02CC
:103F40001E43A6E701F094FBB9E745460B001F4866
:103F50009B1B5B415843000D194B2B80A31C9C46B7
:103F6000B4446546174B0434043B5B1B1B05114DE1
:103F70005B0DAC462B43454636196B800B1F9E1BD1
:103F80006346A87148463605760D1E430A4BAE803F
:103F9000EF71A8600B60434613439C46A8E7C046F8
:103FA000240100D07A310220FC0E002000ED00E058
:103FB00001BD000000E0FFFF01488047CD01001077
:103FC00000A1FFFF2C0F002001BDFFFFAAAA0000E7
:103FD000F0B5DE4657464E464546E0B50C0083B088
:103FE000EFF3108972B6594A1368002BFCD0BFF367
:103FF0005F8F574B9A68030010339F00D559554A7D
:104000009046954232D0A54243D0534EAA1B2F2A48
:104010002CD80122824092465146504A12681140E3
:10402000019151464E4A1160BFF35F8FEFF3058255
:104030009346002A33D101232A009A4393689C4275
:1040400008D178E04B005B189B00F3189968A142F7
:104050002AD01A00062151560029F3DA019B002BC1
:1040600019D052463F4B1A603C4B1A60384B9B6844
:10407000DD51BFF35F8FBFF35F8F0022334B1A60B8
:1040800089F3108803B03CBC90469946A246AB46E3
:10409000F0BD1500EAE75246314B1A60E6E793425D
:1040A000C9D001F0E5FAC6E706215956002922DBFE
:1040B0004A005018800034188046A0689860E07963
:1040C000D871062020569871A0797F2824D8A4881A
:1040D000F01A6405241544440019E0240005400D3D
:1040E00024022043988052181F4B9200B6181A7869
:1040F0001970B271B2E7594600290FD1FF319171A1
:104100001A49918018490A789A71194A9B1B5B4198
:104110005A43120D0A70A1E71648E3E7164A1749F9
:10412000D21A083A5002400D0143998014495208AE
:104130000A43DA8092E70621515613000029B7DAC4
:104140005A46002AEAD14546DCE7C046240100D0A1
:1041500000ED00E0CD010010FC0E002000E100E0C9
:1041600080E100E080E200E07A31022001BDFFFF43
:10417000AAAA000001BD0000360F002000F0FFFFDA
:1041800000F8FFFFF0B5EFF3058101240443EFF3DE
:10419000108672B6214A1368002BFCD0BFF35F8FE4
:1041A0001F4B05001F4AED1A6D416A43120D1E4D4B
:1041B0008900AF6852B27F58A7421CD006215956D9
:1041C00091421CD012215956914222D01E2159569B
:1041D000914220D02A2159560324914210D0134BEA
:1041E00019781A708171BFF35F8F00220B4B1A6030
:1041F00086F31088F0BDAB680D4C5C50EFE70024EF
:104200006100091989005B18FF219971094999809A
:10421000E5E70124F4E70224F2E7C046240100D0D8
:10422000FC0E0020AAAA000000ED00E07A31022076
:10423000CD01001001BDFFFF054B064A1360064A81
:10424000136053609360D36013615361936170474F
:104250008080808000E400E004E400E000B5074BCB
:1042600083B001000093002205230548FFF748FCB6
:10427000002801DB1F23181A03B000BD40C4001042
:1042800080310220024B9C466144890001607047E6
:104290004000003410B50400FFF7AAFC0100200024
:1042A000FFF7F0FF01235B426360BFF35F8F10BD38
:1042B00010B50400FFF79CFC01002000FFF7E2FFAF
:1042C00001235B42636000232372BFF35F8F10BD45
:1042D00010B504000120FFF797FC034BC3189B00A7
:1042E0002360BFF35F8F10BD40000034034B9C463A
:1042F000614489000160BFF35F8F70474000003464
:1043000083680B4810B58446614462440901120178
:104310009A18591854684B6801209C4201D802D061
:104320000020C0B210BD12680B689A42F9D8F7E7B6
:10433000FFFFFF0F074810B50268EFF3108172B658
:104340001368002BFCD0BFF35F8FFDF7DFFA00206E
:10435000002110BD68300020F8B5574645464E464E
:10436000DE46E0B599460CAB19780DAB1B7805001D
:1043700090469A460768002912D1BE7B002E45D090
:1043800074003B68A419033C1B195A783100BA73B6
:10439000002A00D1FA7300229A705A701A7003E052
:1043A0000E004C006418033C2C4B00229C46AB686A
:1043B00061449C464346090161440B604B464B6097
:1043C0000A9B8B600B9BCB603B681B199A705A70E1
:1043D0001A707B7B9B46002B2CD032005946B86864
:1043E0007B6898473A68002817D05B4658465B00C0
:1043F0005B441419033BA070D118D35C002B00D090
:1044000063705B460E707B73B34514D030003CBCC8
:1044100090469946A246AB46F8BD5B465B005B44BE
:10442000033BD3189E701119125D002A00D05A70F8
:104430005B460B707E7342464B46287D00F0AEFB18
:10444000041E06D05346002B03D13100286800F02B
:10445000EBFD0E9B002BD9D01C70D7E7FFFFFF0FA1
:10446000F0B5DE4657464E4645460023E0B58BB0D4
:104470000893674B8200D45800239B46099000F0B4
:104480002DFB626806000F00EFF3108572B613680B
:10449000002BFCD0BFF35F8F23689C465B7B994663
:1044A000002B00D169E0A2685A4B90464B441B0197
:1044B000984443461A685B6810001900801BB94194
:1044C000002900DC63E0099800F068FB002300226B
:1044D000984600230692079300239A466368BFF329
:1044E0005F8F5A461A6085F310885346002B08D117
:1044F0000028C4D10BB03CBC90469946A246AB46BE
:10450000F0BD089B414618024B461843D0476268ED
:1045100006000F00EFF3108572B61368002BFCD075
:10452000BFF35F8F002F50DB33003B4302D0236982
:10453000002B61D12368DA7B002A07D051008A184A
:1045400019688C4649466244033A51709A7B002AA6
:1045500001D14A469A734A46DA734B46E168013BF9
:10456000CA5C0132CA545B4623616368BFF35F8F44
:104570005A461A6085F3108881E700230022984686
:10458000002306920793002300209A46A6E70029FD
:1045900002D1002800D096E70021604600F0A2FC7E
:1045A00043461A685B680692079343469B689A469F
:1045B0004346DB689846E3684B44013B1B7808930D
:1045C0001B0203432361002088E72369002BB1D03D
:1045D000069A079B921BBB41002B15DB59460491A1
:1045E0000121039149460291414601915146200023
:1045F0000091FFF7B1FEB6E700F070FA32003B0021
:1046000012184B41002BE9DA0122034B5242E5E735
:10461000A42D0020FFFFFF0FFFFFFF7F10B5144CFC
:104620006368002B04D00A211248FFF72BFE10BD4F
:104630002300114A1021206800F06EFB032000F0D7
:1046400041FA032000F014FB03200C4900F060FA4B
:10465000FFF7CEFA0A4B9C4603232375D0231B0693
:104660001B6860446375074B80006060DC60DAE7BC
:10467000440F002068300020014300106144001006
:1046800040000034A42D002000487047440F002053
:10469000F0B54E464546DE465746E0B585B0019337
:1046A00010AB1B78804603930023002699460092A6
:1046B00043465A68EFF3108B72B61368002BFCD098
:1046C000BFF35F8F43461D68AC7B002C43D067006F
:1046D0002B683F19033FDB195A78AA73002A00D1CF
:1046E000EA7342469E705E701E709268494B944613
:1046F0000099019AE3181B01634419605A600E9AED
:104700009A600F9ADA602B68DB199E705E701E70DB
:104710006B7B9A46002B68D022001900A8686B6852
:1047200098472A68002853D0534650465B005344AC
:10473000D719033BB870D118D35C002B00D07B7025
:1047400053460C706B73544550D04346DB681B19BD
:10475000013B187800E0002043465B68BFF35F8FA1
:104760001E608BF31088002C51D04B46002B08D1D3
:104770000002204305B03CBC90469946A246AB4699
:10478000F0BD039B002B40D00E9B00200F99984753
:10479000030004000D000B4337D000290ADA009A09
:1047A000019B121BAB4100920193002B0ADB039B80
:1047B00099467DE700F092F924184D410094019547
:1047C000002DF4DA0123144C5B4200930194EEE7D0
:1047D00053465B005344033BD3189C70D119D25D00
:1047E000002A00D05A7053460B706C734346187DF4
:1047F000009A019B00F0D2F981460028A5D04346DB
:104800002100186800F010FC9FE70020B2E70120AB
:104810004042AFE7FFFFFF0FFFFFFF7F407D704784
:10482000F0B54746CE46040080B50D009626764288
:10483000F71736196F4185B08F4215D812D000F0A6
:104840004DF932003B00121A8B41002B16DC002B75
:1048500039D02000290000F04BF905B00CBC90467F
:104860009946F0BD8642EAD90026002700F036F9C5
:1048700032003B00121A8B41002BE8DD002302932B
:104880000193124B3200009311483B00FFF700FFE9
:104890000028DEDBB846B1460E4F0F4E736A9845CE
:1048A00004D8B26A9145D4D99845D2D13A68EFF389
:1048B000108172B61368002BFCD0BFF35F8F3800F5
:1048C000FCF7F0FFEAE7002AC3D0D7E73543001032
:1048D000440F0020683000200040054070B50400FF
:1048E0000D0000F0FBF800196941002902DBFFF719
:1048F00097FF70BD012001494042F8E7FFFFFF7FAD
:1049000070B5060000F0EAF8FA2204000D0000235A
:1049100030000021920003F097F900196941002945
:1049200002DBFFF77DFF70BD012001494042F8E73F
:10493000FFFFFF7FF0B5EFF30583CE46474680B516
:1049400005000C0085B0002B12D02C4B0020596ABA
:104950008C4203D89B6A0130AB4204D305B00CBC37
:1049600090469946F0BD611A481E8141C8B2F5E7EC
:10497000234E02930193234B0200009330000B005F
:10498000FFF786FE031EE0DD20BF7168EFF310879E
:1049900072B60A68002AFCD0BFF35F8FDAB2944681
:1049A0003068427B62451DD0FF221A405100894683
:1049B0000168914488464946414403398978002971
:1049C00013D0F1681B0A88464244013A1278DBB2E0
:1049D0009A420FD07368BFF35F8F00221A6087F38B
:1049E0001088B2E7FF221A40EBE732699342F1D117
:1049F0003161EFE7614600F017FBEBE7004005404F
:104A0000440F002035430010F0B5EFF30582D64681
:104A10004F4646461000C0B51038EFF3108872B606
:104A2000214C2368002BFCD0BFF35F8F01231900BA
:104A300081401E4D1F006963AA461D4D29601D4D12
:104A40002E78AC463500C5402F402B4215D053463A
:104A5000194D5F6A83005D59AF4218D3174A8E43E0
:104A60009B5862461670BFF35F8F0022226088F366
:104A70001088002B06D0984704E0BFF35F8F2760B3
:104A800088F310881CBC90469946A246F0BD0C4B9A
:104A900092009C46624413681360BFF35F8F00234B
:104AA000236088F31088EDE7280100D0004005401E
:104AB0003C7005407F31022074300020E814002053
:104AC000D03F054010B50100024A0348FEF7F4FF4D
:104AD00010BDC0465CC4001079310220034B596AF6
:104AE0000A00986A596A8A42FAD170470040054024
:104AF000064A536A9942FCD807D1044B02E05A6A2D
:104B0000914202D19A6A8242F9D37047004005402F
:104B100070B504000D00EFF3108672B61A4A1368E0
:104B2000002BFCD0BFF35F8F002D1BD02000FFF7C0
:104B30003BF9164981420AD02000FFF73DF90121D7
:104B40002000FFF701F90123A340114A1360114B24
:104B5000A400E550BFF35F8F00220B4B1A6086F371
:104B6000108870BD0B4BA200D5500122A2400A490B
:104B700020000B7893430B700449FFF729FA0021BA
:104B80002000FFF7E1F8E5E7280100D0094A00100E
:104B900038600540E81400207F310220F0B54F4610
:104BA000D6464646C0B507002C4C616A0D00A66A81
:104BB000616AA942FAD18B4208D805D001201CBCF9
:104BC00090469946A246F0BDB242F7D9EFF310895C
:104BD00072B6234801680029FCD0BFF35F8F01251E
:104BE0002049BD408C4609781C4C0E002E43884657
:104BF000F1B28A46614650460870391D1A4889004C
:104C000065630A51B9000B50216A0020294219D06E
:104C1000616A0800A66A616A8142FAD18B4219D89A
:104C200001D1B24216D8C24516D00C4B1F201D62CE
:104C30005D6301230740BB400C4A1E381360634686
:104C400042461A70BFF35F8F0022054B1A6089F34A
:104C50001088B4E70020F5E70120F3E700400540A5
:104C6000280100D07F3102207430002080E200E073
:104C700010B5EFF3108472B60A490B68002BFCD014
:104C8000BFF35F8F01238340074A0848136202780D
:104C90009A430270BFF35F8F00230B6084F3108888
:104CA00010BDC046280100D0004005407F310220E1
:104CB00070B505000E001400002924D0002A24D06D
:104CC00080686B689847296800280ED063001B191C
:104CD0007200033B9219CB18033A9E7088188A5CC5
:104CE000002A14D1047030000EE073009B1962009A
:104CF000033B1219CB18033A9C7088188A5C002A6F
:104D000000D05A700670200070BD0800FCE75A7091
:104D100004703000F8E7C04630B583600023CCB2A1
:104D200043730133047342608373C4730D000068DE
:104D3000012C06D9421C0133DBB2137003329C42B2
:104D4000F9D1FF2129404B0059180023401803389E
:104D5000437030BDF8B5CE46474606000C0080B51E
:104D6000002907D04D0003686D18033D5A19577884
:104D7000002F04D120000CBC90469946F8BD790064
:104D8000C919033988464344597889460021597026
:104D9000517073683A002100806898473368002892
:104DA00014D042469A18947059195B5D002B00D0BC
:104DB00053700F70270049463000FFF7CBFF3900D2
:104DC00002003000FFF774FF0400D3E7424641467B
:104DD0005D19AF709A185B5C002B00D06B7014707B
:104DE000E9E7C046F0B557464546DE464E46E0B5D3
:104DF0000D006B0001685B19DF1E0400C85D83B005
:104E00000192CA19002850D043001B18033BCB184D
:104E10005E78B446002E1AD1019E002E42D0E67B69
:104E2000002E04D073009B19CB18033B5D70A37B4D
:104E3000002B00D1A573E57300282FD100235370F8
:104E400003B03CBC90469946A246AB46F0BD72000A
:104E50006244033A89184A78904600224A70914683
:104E60005A70010032002000FFF722FF43468246BD
:104E7000002B07D05B0021684344033BCB185A78D2
:104E8000002A16D1424651462000FFF711FF216843
:104E9000019BCA19002BC2D10028CFD043001B1898
:104EA000033BCB1800219970C8E7019B002BB6D1BA
:104EB000C4E75000801803380918487883464846EC
:104EC0004870587041462000FFF7F2FE5946804670
:104ED0002000FFF73FFF414602002000FFF7E8FEF9
:104EE0008046CFE7F0B54E464546DE465746E0B52C
:104EF000467B040075000068AD19033D83B0019145
:104F0000415D4219002952D04B005B18033BC31886
:104F10005F78BC46002F1CD1019D002D44D0E57B5D
:104F2000002D04D06B005B19C318033B5E70A37B9C
:104F3000002B00D1A673E673002931D10023300085
:104F40005370617303B03CBC90469946A246AB4691
:104F5000F0BD7A006244033A8018427893460022FA
:104F6000427091465A7020003A00FFF7A1FE5B465E
:104F70008046002B07D05B0021685B44033BCB18C5
:104F80005A78002A17D15A4641462000FFF790FE72
:104F9000019B010020684219002BC0D10029CDD00F
:104FA0004B005B18033BC31800209870C6E7019BB9
:104FB000002BB4D1C2E75000801803380918487894
:104FC000824648464870587059462000FFF770FEE8
:104FD00053468346002B07D05B0021685344033BB4
:104FE000CB185A78002A06D1594652462000FFF7BE
:104FF0005FFE8346C7E7500080180338091848460B
:105000004F784870587051462000FFF751FE390024
:1050100081462000FFF79EFE494602002000FFF770
:1050200047FE8246E0E7C04670B5040000292CD058
:10503000437B8B422ED0056848004018033828185F
:105040008278002A21D053009B18033BEA5CEE18BB
:105050008A4202D11BE0002A08D053009B18033B70
:10506000EB185A788A42F6D142785A70002301220E
:10507000837043702000FFF7B5FE617B02002000C3
:10508000FFF716FE6073012000E0002070BD43783A
:105090003370EBE701221900FFF7A4FE60730120D3
:1050A000F4E7C04630B50C2083B000F0DDF9FEF720
:1050B000FBFC00280ED0994B994A1A605A609A60FE
:1050C000DA601A615A619A61DA611A62954A5A6223
:1050D00003B030BD944CA06700F01AFA0122934B44
:1050E0001A60636C012BFCD10322914B1A608E4A2B
:1050F000936B012BFCD1013301218E4A8E48009322
:10510000043300F061F905238C4A009301218C4897
:1051100000F05AF98B4B5A68FF2A02D880225200BD
:105120005A6080227D4C824B21691201854D1A60A4
:10513000002907D0606901F039FE431C5800C018EF
:105140000338FDD2E0217F4B02201A6811408022F3
:1051500052012A431160196848400321014011603F
:1051600004219A681142FCD08022802192012A43B6
:1051700009011160802252005A60734B2361734B06
:105180005968FF2900D85A6003227048674B0121F3
:105190001A60020093681942FCD0E02513681D4094
:1051A00080235B0103431D6012684A4003211140C4
:1051B00019600221654A93681942FCD0802380213E
:1051C0009B010343090119608021614B4900516033
:1051D0006361604B5A68FF2A00D8596080225E4B99
:1051E000E16912015B4D1A60002907D0606901F086
:1051F000DDFD431C5800C0180338FDD2E02255499C
:105200000B681A4080235B012B431A6080238022A5
:105210009B012B4312011A608022414B52004A60CD
:10522000E3614E4B5968FF2900D85A6080224C4BED
:10523000216A1201494D1A60002907D0606901F006
:10524000B5FD431C5800C0180338FDD2E022434985
:105250000B681A4080235B012B431A608023802255
:105260009B012B4312011A60802380225B004B605C
:105270002B4BD20223623B4B5968914200D25A60B9
:105280008022394B616A1201364D1A60002907D01D
:10529000606901F08BFD431C5800C0180338FDD233
:1052A000E02230490B681A4080235B012B431A60CF
:1052B000802380229B012B4312011A608023DB0292
:1052C0004B60184B6362294B5A68FF2A02D8802230
:1052D00052005A608022264BA1691201234D1A60A8
:1052E000002907D0606901F061FD431C5800C01817
:1052F0000338FDD2E0221D490B681A4080235B0170
:105300002B431A60802380229B012B4312011A60D9
:1053100080235B004B600E4BA361D9E60818002088
:10532000006CDC021BB70000008000403CB0004075
:1053300030B00040002F685900800240008C864742
:1053400000C0024030800040001BB7003C8000409D
:10535000405973075480004054B0004060800040C2
:1053600060B000406C8000406CB00040488000405D
:1053700048B00040014B8000C0587047081800201A
:10538000802270B506000E4C5200A3691D00154026
:105390001342FAD1FA210B4B8900186901F006FD7E
:1053A0000A2310212060064A23610B3B6560A3603D
:1053B000666193691942FCD0D069400970BDC0464E
:1053C0008080004008180020F8B50400214817002C
:1053D0001D000E0001F0EAFC0100380001F0E6FCBF
:1053E000069A2B04120313432268002A21DB1A4A6F
:1053F000A21851424A41802149018C4652420A403A
:10540000164962440A6016490A60164917008D68F9
:10541000AF43FBD1C021221D890111432122266007
:10542000A0600A602268002AFCDAE36008230B60AF
:10543000F8BD3F2221680A40B242D8D1A2681205C5
:10544000120D8242D3D1EE21E268C9020A409A428B
:10545000CDD1EDE7001BB7000040FDBF00E00040EC
:1054600000F0004000C000408023024A9B0003433C
:10547000D36270470080054010B5140080221B4B9A
:10548000D2051A6000281AD00123194A1843194B73
:10549000DA61194A42401A62596298628022134BBB
:1054A000D2051A601549164A1160E022D2041A602A
:1054B000002C07D18022134B12061A6010BD0D4B31
:1054C000D861EBE780236201121B920012191201CE
:1054D0005B049A4200D30C4A0C4B1A60054B5A608D
:1054E0008022084BD2051A60E8E7C04600B00540AC
:1054F000D3C007B0008005402D3FF84FFCFF0100EE
:105500000820014000A00540FFFFFF00802D002083
:10551000AA23064A1B0113602F230549D360054BBC
:1055200019605368002BFCDA7047C0460040024007
:1055300000B0FA00006002402C4B2D4A70B51A6092
:105540002C4A2D4B2D491A6010008B689843FBD1D3
:105550002B4C2C4B9C4209D2013B1D1BAD08013545
:10556000AD002D1908CC9847AC42FBD1FFF79AFD4E
:10557000254A214B1A60214A9368DB018033FBD115
:105580004022224B224C234D9A675A671A67DA66EB
:10559000AC4208D223682000002B21D00C34FEF747
:1055A00087FEAC42F6D31C4C1C4DA168C0222800DB
:1055B00002F056FDA560FEF70DFBFEF73DFEFFF77E
:1055C0002DF8174C174B9C4209D2013B1D1BAD080F
:1055D0000135AD002D1908CC9847A542FBD170BD0F
:1055E0000834FEF757FEAC42D4D3DCE700E00040BD
:1055F000BFCDFBFEFE7F3C0000F0004000C000403D
:10560000FC0F00200C100020FFFFFF0100F0014004
:10561000EC0F0020FC0F002000ED00E00000002057
:105620000C1000201810002000BEFDE710B5FFF799
:10563000FBFFC0460FB400B5084883B002F068FE17
:10564000049B002B07D005A91800019101F038FB3D
:10565000034802F05DFE0120FFF7E6FF80C4001062
:10566000A0C3001010B50148FFF7E4FF90C400107C
:1056700010B50148FFF7DEFFA0C400107047C04618
:10568000F8B557464E46DE464546E0B51F000A9B34
:1056900005009B460D9B0E00914692469B0718D134
:1056A0000B9B0C9A934214D213000B9AB8469B1A88
:1056B0004B444C460F0006001D00220043460134B7
:1056C00039002020B047AC42F7D1AA4635003E0051
:1056D00047460B9B002B38D09A441C00D0465346BB
:1056E0001A1B5B46013C185D31003B00A847002CAB
:1056F000F5D10D9B9B0721D543464A469C1A0C9B2E
:10570000A3421BD93A009A464F469146E2194B46AE
:10571000310020200134A8475445F7D343460C9963
:10572000DB1B0133B9460022994203D343464A1E8C
:105730004A44D21A434690460133984440463CBC02
:1057400090469946A246AB46F8BDD046D1E7C04642
:10575000F0B54F464646D646C0B584B098460EAB27
:105760001B78129F994694460D9C109B119EBA0778
:1057700025D4002E69D19C4200D3C2E001223A40D8
:1057800092461F2C00D9BBE00C9A551E302201E036
:10579000202C03D001342A55A342F9D85246002ABE
:1057A0000DD0B4420BD21F2C62D80C9A551E302259
:1057B00001E0202C5CD001342A55B442F9D1FA061C
:1057C00035D57A055DD4002C57D10F9B102B00D115
:1057D0007CE00F9B022B00D18DE030230C9A01243A
:1057E00013704B46002B27D02D230C9A13550134F0
:1057F0000C9B624600930397434602960194FFF781
:105800003FFF04B01CBC90469946A246F0BDBB06C3
:1058100063D4202CECD00C9B1A190134782313701C
:10582000202CE5D030220C9B1B191A700134202C3F
:10583000DED04B46002BD7D17B0735D43B07D7D5DD
:1058400020230C9A13550134D2E7012215003D4064
:10585000AA463A4220D04A46002A2AD10C323A427D
:1058600027D19C429DD21F2C00D88DE7202E19D91C
:105870002024FA06BCD57A0503D4A3421BD0A64245
:1058800019D00F9B102BC2D0022BC9D1202CAFD026
:105890000C9B1B19013440E09C4200D38FE71F2C66
:1058A00000D871E720248AE72B230C9A1355013482
:1058B0009EE7013ED5E7631E012C00D185E70F9AD4
:1058C000102A20D0022A25D01C00ABE7BB060DD43D
:1058D00078230C9A01241370A4E7202C00D187E7C9
:1058E00058220C9B1B191A70013499E758230C9A03
:1058F0000124137096E70C9A60330124137091E72A
:10590000202400265BE7023CBA06E9D40C9A12195F
:105910001C0083E70C9A9246534462221A707FE778
:1059200010B5002800D110BD02F0A6FCFBE7C04670
:105930000B0010B5002802D049681B68984710BDBD
:10594000F0B5DE46574645464E46E0B59BB09B4611
:10595000249B0A909846259B0B910C924046424608
:1059600019009A4601F0EBFC002800D0E8E0012283
:10597000404651467F4B524201F0DCFC002800D0EB
:10598000DEE00122404651467B4B524201F0BCFC16
:10599000002800D0D4E0002200234046514601F008
:1059A000B3FC002800D0CAE15346C14609938023C6
:1059B000289ADB001A400E92289A1A4201D1062337
:1059C00026934C46099B234300D0D9E0289B002610
:1059D00000271B0500D4AEE100230D93269B190080
:1059E0000D9B994200DCB0E1C81A431E2693802328
:1059F000289ADB001A430023002528920D93279B49
:105A00000024AB4200D95C1B0223289A1A400E9254
:105A1000289A134203D06B426B415B421C400D9BA2
:105A2000002B07D04846099932003B0001F00BFCDF
:105A300081460991002200234046514601F064FC52
:105A4000002805D080200006844609996144099108
:105A5000289A4A4B0A9E13404A460493269B0B9968
:105A60000293099B03940092019330005B460C9AC9
:105A7000884600F0A1F90400002D72D0289B220076
:105A800098061F23C017984341465B466530B047D0
:105A90000D9B671CDA179C18DB0F98466B1E994606
:105AA0000025544001E0202D13D00AAA94461F235C
:105AB000200063440A2101355E1901F077F9303185
:105AC000317020000A2101F071F926000400092E2E
:105AD000E9D8052306934B460593002304930A3324
