:020000041000EA
:1000000000B5324B212058609868022188439860DF
:10001000D860186158612E4B002199600221596106
:100020000121F02299502B49196001219960352056
:1000300000F044F80222904214D00621196600F024
:1000400034F8196E01211966002018661A6600F04E
:100050002CF8196E196E196E052000F02FF8012189
:100060000842F9D1002199601B49196000215960AB
:100070001A491B48016001219960EB211966A021F2
:10008000196600F012F800219960164914480160C1
:100090000121996001BC002800D000471248134993
:1000A000086003C880F30888084703B5996A0420EC
:1000B0000142FBD001200142F8D103BD02B5186610
:1000C0001866FFF7F2FF186E186E02BD00000240BE
:1000D000000000180000070000035F00212200005C
:1000E000F4000018222000A00001001008ED00E03C
:1000F00000000000000000000000000074B24E7A12
:1001000000200420F7010010C3010010C5010010F9
:10011000C1010010C1010010C1010010C101001097
:10012000C1010010C1010010C1010010C701001081
:10013000C1010010C1010010C9010010CB01001065
:10014000CD010010CD010010CD010010CD01001037
:10015000CD010010CD010010CD010010CD01001027
:10016000CD010010CD010010CD010010CD01001017
:10017000CD010010CD010010CD010010CD01001007
:10018000CD010010CD010010CD010010CD010010F7
:10019000CD010010CD010010CD010010CD010010E7
:1001A000CD010010CD010010CD010010CD010010D7
:1001B000CD010010CD010010CD010010CD010010C7
:1001C00000BE00BE00BE00BE00BE00BEEFF3058054
:1001D000103800BEF2EB8871F4760010187700102A
:1001E0003402001090A31AE700201F49086006C8D7
:1001F00081F3088810471D48006800282FD10DA4FE
:100200000ECC002902D000F012F8F9E71849194A7B
:10021000002000E001C19142FCD1174988471749ED
:1002200088471749884700BEFDE701C901C29A42C5
:10023000FBD3704718770010C0000020A0020020F8
:10024000F87800100000042000000420F878001066
:10025000001004200010042000000000704709482E
:1002600005F09AFA0047000008ED00E0000000D019
:10027000A0020020001B0220D13F0010E503001067
:10028000C54000105756000006005250ABB36053F3
:100290003876001006005250861C03024876001083
:1002A000060052505422A29D607600100500525064
:1002B000DE65F468F8780010F8B5C0460448054BD0
:1002C00010B5834203D0044B002B00D0984710BDDB
:1002D000A0020020A00200200000000006480749FC
:1002E000091A8B10C90FC91810B5491003D0044B57
:1002F000002B00D0984710BDA0020020A0020020D3
:100300000000000010B5074C2378002B09D1FFF73F
:10031000D5FF054B002B02D0044800E000BF0123AD
:10032000237010BDA00300200000000030730010F7
:10033000054B10B5002B03D00449054800E000BF71
:10034000FFF7CCFF10BDC04600000000A403002052
:10035000307300100523F0B585B01D4A1D49009388
:1003600003A8013B06F0CCFC962009250A24400096
:1003700001F0DAFC6D44184F6C4408E002000B00F9
:10038000380006F055FFFA20800001F0CDFC05236F
:100390002B70033B2A00182101930398013B009422
:1003A00006F0F0FC23881E021B0A1E43B6B230057D
:1003B0002680000D05F022FD084B002205F0ADFC63
:1003C000F304DBD50022064B05F077FCD6E7C046E8
:1003D00040420F0068020020307300100000B03F60
:1003E0000000704000B583B006F0B0FA0023802210
:1003F00001931E330549009352000023044801F085
:10040000AFF801F0EDF9002003B000BD3C7300101F
:10041000550300107047C0460000000000000000B7
:100420000B4A13681868203080F30988022080F393
:100430001488BFF36F8F3FBCAE4608BC04BC62B6E5
:100440001847C046C046C046C046C046C046C04623
:10045000281500200000000000000000000000003F
:10046000EFF30980164B1A6820381060F0C044463C
:100470004D4656465F46F0C00D221207146E556E6B
:10048000566F176F3038F0C008B572B601F088FCAF
:1004900062B60CBC116808681030F0C8A046A946C6
:1004A000B246BB4680F309880D2212073038F0C8E7
:1004B0001466556656671767F0C81847C046C046A9
:1004C0002815002010B503F019FEC04610B5802491
:1004D000031F64041C60043B19600349043B19605A
:1004E000143B40381A6010BDC50400108022044B34
:1004F00052051A60BFF34F8FBFF36F8F7047C0462E
:1005000004ED00E072B6044A136801331360BFF3D0
:100510004F8FBFF36F8F7047E0170220094A1368AF
:10052000013B1360002B0CD1074A1168002907D04A
:1005300006480068BFF35F8F0B6080F3108813607C
:1005400062B67047E0170220BC170020DC170220BB
:10055000EFF3108072B6704780F310887047C04682
:1005600010B5FFF7F5FF040001F03EFA002803D0B4
:100570008022034B52051A602000FFF7EDFF10BDEB
:1005800004ED00E0002310B5084A094C0520236063
:10059000136003F087FCFA21890005F053F9054B3D
:1005A000013818600723236010BDC04618E000E042
:1005B00010E000E014E000E0FF22154B120419687F
:1005C00010B50A431A60FF220220196812060A4376
:1005D0001A601049404202F0E7F801200E494042FB
:1005E00002F0E2F805200D49404202F0DDF8FFF785
:1005F000C9FF00220A4B1A60D0231B061A68094B58
:100600001A70FFF70DFF01F0CBFB03F077FDC0463A
:1006100020ED00E0610400106105001015040010D9
:10062000E0170220B0010020D02310B51B06186887
:10063000074B1B78834200D010BDEFF30583002BDE
:1006400002D05B00C018F7E701F0CAFDF4E7C0462E
:10065000B001002000B51C4A0B001178D022120610
:10066000126883B0914209D040BF0268BFF35F8F28
:100670000021116083F3108803B000BD02210068DF
:10068000124AFF31821892109140090ABFF35F8F1E
:100690000022026083F31088EFF30583DBB2002BA6
:1006A0000DD00B4B0192186801AA00F091F9019B43
:1006B000002BE1D08022074B52051A60DCE7044B87
:1006C000186800F03DF9D7E7B001002000FFFF2FC8
:1006D0004818022004ED00E0F0B5CE46474680B54C
:1006E0001D00344B14001A78D0231B061B6881466A
:1006F000884683B09A420FD00368BFF35F8F002211
:100700001A6081F310882000290002F0CDFD03B0AB
:100710000CBC90469946F0BD02F09AFE22002B00D8
:100720000127121A8B41244E7F42B6185F41002FD9
:1007300020DC1BD04B461B68BFF35F8F00221A6082
:1007400088F310881D4B5A6A954205D89B6A012090
:10075000A342DCD29542DAD18022194B52051A60AD
:10076000BFF34F8FBFF36F8F0020D0E7FA239B00BA
:100770009E42DFD3FA22002330003900920005F0B8
:1007800087F8031ED6D04A46404612680D490A60D3
:100790000D4908600D498C46022162449210FF31D8
:1007A00091400B4A090A106800930122002300F0CF
:1007B0006BF8C7E7B001002018FCFFFF00400540C0
:1007C00004ED00E0BC170020DC17022000FFFF2F23
:1007D0004818022010B500F04BF8014B186010BD0E
:1007E00048180220F8B5DE4657464E464546E0B565
:1007F00005000C00070001F0E3F829682E69214389
:100800000C372960B7422AD000239B468023DB04A3
:100810009A4680235B04994680239B0498460EE009
:1008200019420AD04C46224202D05A461A439346F5
:100830004346194301F03CFC2968B7420DD0300013
:1008400054460268766813021B0A2242E8D00C0064
:100850001C40A342E6D0B742F1D15B4699432960E0
:1008600001F0A8F93CBC90469946A246AB46F8BDBB
:1008700010B51C2002F06CF8041E03D0002308C041
:1008800000F0B0F8200010BDF0B5C646060000B577
:100890000D0090461F0001F093F83468002F0AD134
:1008A00025420CD04346002B0CD02300AB433360D1
:1008B00001F080F908E02B0023409D42F2D0069B16
:1008C000002B05D101F076F9200004BC9046F0BD64
:1008D0004346002B16D180210023C904002F00D1EC
:1008E0001900069A2943301D01F0B6FA01F062F9A9
:1008F00000281CD001F036FD0400830107D5240236
:10090000240AE1E7A0218023C9045B04E6E7FFF79E
:10091000F9FD3468002F0DD12C4205D04346002B41
:1009200002D02300AB433360FFF7F8FDE7E7FFF7A2
:10093000DDFDDFE723002B409D42F5D1EEE7C04609
:10094000F8B5DE4657464E464546E0B505000F0071
:10095000060001F035F829682C6939430C36296006
:10096000A6422AD0002398468023DB049B4680239E
:100970005B049A4680239B0499460EE019420AD0F4
:1009800057463A4202D042461A4390464B461943D4
:1009900001F08EFB2968A6420DD020005F46026858
:1009A000646813021B0A3A42E8D00F001F409F42BE
:1009B000E6D0A642F1D143469943296001F0FAF806
:1009C00028683CBC90469946A246AB46F8BDC04656
:1009D00010B513000A000100014801F0D1FE10BD5E
:1009E000E50700100300012208334360C360036180
:1009F00000235242826003607047C04600230361B7
:100A00007047C046030030B50C680833621C0DD037
:100A10001A005B681D68A542FAD94B6099600368AB
:100A20008A60013351600861036030BD0269536818
:100A3000F3E7C0460369416882688A60516059687B
:100A4000814206D0002202611A68013A1A601868D1
:100A500070475A60F6E7C046F0B5DE464E46574648
:100A60004546E0B585B00600FFF74CFD4523F45C34
:100A700064B2002C21DD213B994621339B46B144D1
:100A800009E0AB6BEA6B0396934245D3013CE3B2BA
:100A900064B2002B11D0B56C002DF2D1736A002B1B
:100AA0000BD0484601F098FA0028EFD001F092FBF5
:100AB000013CE3B264B2002BEDD14523FF22F25496
:100AC000FFF72CFDFFF71EFD4423F45C64B2002CFD
:100AD00016DD3500103504E0013CE2B264B2002AB4
:100AE0000ED03369002B0BD0280001F075FA0028D6
:100AF000F2D0013C01F06EFBE2B264B2002AF0D108
:100B00004423FF22F254FFF709FD05B03CBC904698
:100B10009946A246AB46F0BD5B462A6CEF5CAB6BD8
:100B20007FB29846002A13D12B680193002B30D056
:100B300000239A4643460133AB637B1C17D16B6A93
:100B4000002B1DD15346002BA0D001F043FBAFE793
:100B5000686803A905F000FD2A6C6B689446AA68D2
:100B600063446B609342E3D32B686B60E0E700F073
:100B700035FFB842E6D95B4601377FB2EF54E1E773
:100B80002800243001F028FA0028DBD001F022FBF5
:100B90008EE7A86801F074FB019B8246AB60C9E751
:100BA000F0B5C64600B5846C82B0A36BE26B00253D
:100BB0000190934204D3280002B004BC9046F0BDDB
:100BC0004523226CE65CA76B76B2002A1CD06068D5
:100BD00001A905F0C1FC226C63689446A2686344D5
:100BE0006360934214D3236863600137A763731C67
:100BF00013D1636A002BDED02000243001F0ECF921
:100C00000028D8D00125D6E723689846002B0DD0C0
:100C100001370025A763731CEBD000F0DFFE86428E
:100C2000C9D24523013676B2E654C4E7A06801F084
:100C300027FB43460500A360D7E7C046F8B505008B
:100C40000E001700002846D00B0C020C002B34D1EC
:100C5000331C002A35D130006843030055333AD89D
:100C6000543001F075FE041E35D00300002E00D074
:100C700054332360E5632664FFF744FC216CE36B87
:100C800022684B43D0185B1AD3186260E3600025DA
:100C9000FF234422A0602000A563A3540132A35483
:100CA0001030FFF79FFE20002430FFF79BFEFFF778
:100CB00035FC5023E754A5640EE0002A0BD11A1C22
:100CC000031CB0B2A9B2414398B293B24343090C9A
:100CD0005B181B0CBFD000242000F8BDF0B5CE4639
:100CE000474604001E00002380B585B09946019256
:100CF0008846FFF707FCA36BE26B0027442593426D
:100D000037D3022E72D0019B002B00D18AE0002F36
:100D100068D0FFF703FC00F053FEFFF7F3FB625DC2
:100D200052B2531C01D14B4663554523E25C52B28B
:100D3000013201D14A46E254FFF7F0FB01A902A8B3
:100D400001F00EFA002800D074E0FFF7DBFBA36B84
:100D5000E26B934234D0FFF7E1FB2000FFF77CFE0B
:100D600000F028FF0127FFF7CDFBA36BE26B934256
:100D7000C7D2226CA76BA56B002A3CD04146002E3F
:100D800000D084E0606805F0E7FB226C636894465D
:100D9000A26863446360934201D323686360A36CD9
:100DA0000135A563002B34D1636A002B36D02000B7
:100DB000243001F011F9002830D0FFF797FB2DE027
:100DC000FFF7ACFB20000199103000F0F9FF200084
:100DD000FFF742FE00F0EEFE0028C3D1FFF786FBCE
:100DE0000127C0E702A801F0AFF992E7226CA76BD8
:100DF000A56B002A25D1236800209846002B40D0FF
:100E0000A36C0135A563002B35D0022E01D1002F34
:100E100004D12000FFF7C4FE0028CED1FFF77EFBEF
:100E2000012002E0FFF77AFB002005B00CBC9046E1
:100E30009946F0BD2000FFF70FFE00F0BBFE00203A
:100E4000F3E74146E06805F087FBE168236C5A420E
:100E5000CB1A2168E3608B4205D2A3689C466244AA
:100E6000E260022E9BD1002D00D10135A36CA56359
:100E7000002BCCD198E7636A002B98D100289CD135
:100E8000CCE7A06801F0FCF94346A360B8E7E0684E
:100E900005F062FBE168236C5A42CB1A2168E360DB
:100EA0008B42DED2D9E7C04670B50600542001F06F
:100EB0004FFD041E2CD0002501230060C363056490
:100EC000FFF720FB216CE36B22684B43D0185B1AC1
:100ED000D3186260E3604422FF23A0602000A56372
:100EE000A3540132A3541030FFF77CFD20002430BE
:100EF000FFF778FDFFF712FB50230022E654002194
:100F000000232000A564A5602560E560FFF7E6FEEC
:100F1000200070BDF8B54E46DE46574645460400F3
:100F2000E0B591461D000F00FFF712FBA36BE26BCB
:100F30000600934235D3022D0AD000243000FFF77B
:100F40000BFB20003CBC90469946A246AB46F8BD40
:100F50004523E35C226C5BB29846A36B9B46A36B74
:100F60009A46002A44D12768002F65D053460133A2
:100F7000A3634346013330D1A36C002B4DD0022D27
:100F800002D15B46002B0AD12000FFF709FE0028A2
:100F900005D04B46002B02D001234A4613600124A2
:100FA000CCE74523E35C226C5BB29846A36B9B467F
:100FB000A36B9A46002AD6D0002D19D1390060685B
:100FC00005F0CAFA226C63689446A26863446360C1
:100FD0009342CBD323686360C8E700F0FFFC8045F1
:100FE000DDD24346452201335BB2A3540124A5E779
:100FF0003900E06805F0B0FAE168236C5A42CB1A78
:101000002168E3608B4203D2A3689C466244E2609D
:101010005346022D0CD00133AAE7636A002BBED0E1
:101020002000243000F0D8FF0028B2D1012485E749
:10103000002B9DD101339BE7A06801F021F95346B5
:10104000A760013394E7C046F0B5C646040000B57A
:101050000E00FFF77DFAA36BE26B050000279A42B2
:1010600014D94522A75C01337FB29046A3637B1C51
:1010700013D1A36C002B1AD02000FFF791FD00289C
:1010800013D0002E11D00123012733602800FFF771
:1010900063FA380004BC9046F0BD00F09FFC874224
:1010A00003D2434601377FB2E7540127EEE7636A74
:1010B000002BFAD02000243000F08EFF0028E0D171
:1010C0000127E3E7F0B54746CE46040080B585B07A
:1010D00088460192FFF716FAA76B002F5FD1019B9C
:1010E000002B3BD002A801F02FF80023442699469C
:1010F0004525FFF713FA00F063FCFFF703FAA35D41
:101100005BB2013301D14B46A355635D5BB2013342
:1011100001D14B466355FFF701FA01A902A801F07E
:101120001FF8002822D1FFF7EDF9A36B002B2AD17D
:10113000FFF7F4F920000199243000F041FE20006F
:10114000FFF78AFC00F036FD00283DD0FFF7DAF902
:10115000A76B002F23D1019B002BCAD1FFF7DEF92B
:10116000002005B00CBC90469946F0BD2000FFF76A
:1011700073FC00F01FFDFFF7C5F9A36B002BEDD04A
:10118000FFF7CCF9E2E7FFF7C9F92000FFF764FCAD
:1011900000F010FDFFF7B6F9A76B002FDBD0226C33
:1011A000002A08D0E3689918A368E16099420ED23A
:1011B000404605F0D1F9013FA7632369002B09D10F
:1011C000FFF7ACF90120CCE7FFF790F9BEE7216803
:1011D000E160EDE72000103000F0FEFE0028EFD0C7
:1011E000FFF784F9ECE7C046F0B5C64600230400DB
:1011F00000B584B098460191FFF784F9A36B0026EF
:1012000000274425002B3CD1019B002B00D178E026
:10121000002F50D0FFF782F900F0D2FBFFF772F9F0
:10122000635D5BB2013301D1434663554522A35C44
:101230005BB2013301D14346A354FFF76FF901A913
:1012400002A800F08DFF002827D1FFF75BF9A36B00
:10125000002B34D1FFF762F92368002B55D0200012
:101260000199243000F0ACFD2000FFF7F5FB00F001
:10127000A1FC002835D00127FFF744F9A36B002B10
:10128000C2D0013BA3632368002B50D02369002BFD
:1012900044D1FFF743F901261EE02000FFF7DCFBF5
:1012A00000F088FCFFF72EF9A36B002B10D0FFF79E
:1012B00035F90127E0E702A800F046FFAAE7FFF7AB
:1012C0002DF92000FFF7C8FB012700F073FCD3E7DE
:1012D000FFF724F9002E08D1300004B004BC90467A
:1012E000F0BDFFF703F90127C6E7FFF70BF9616AC5
:1012F000002903D02021236B1B68C91AA06800F0C5
:10130000F1FFFFF70BF90026E6E7FFF7FBF8A0680F
:1013100000F06CFF0600FFF701F9A0E72000103095
:1013200000F05AFE0028B4D0FFF7E0F8B1E701F072
:1013300025F8A060AAE7C04610B50400FFF7E2F860
:10134000A46BFFF7EBF8200010BDC04670B5002974
:101350000ED000260023374DDA00AC1864688442B2
:1013600059D0002E05D00133082BF5D131607060C3
:1013700070BDAC58002C4BD05C1C072BF8D0E200A1
:10138000AE187668B04246D0AE58002E47D09C1CAE
:10139000062BEDD0E200AE187668B0423BD0AE58D6
:1013A000002E3CD0DC1C052BE2D0E200AE187668A3
:1013B000864230D0AE58002E31D01C1D042BD7D021
:1013C000E200AE187668B04225D0AE58002E26D086
:1013D0005C1D032BCCD0E200AE187668B0421AD068
:1013E000AE58002E1BD09A1D022BC1D0D4002E194E
:1013F0007668B0420ED02C59002C13D0012BB7D0F8
:10140000EB6B984212D0AB6B002BB1D10723382283
:10141000AE18A8E7D200AE1831607060A8E72300CC
:10142000AE18A0E71300D200AE189CE73822AE1821
:10143000F2E7C046BC18022070B5040016000D008B
:10144000FFF760F84422A35C5BB2013301D10023B3
:10145000A3544522A35C5BB2013301D10023A35402
:10146000FFF75CF8A36B002B03D02000FFF7F4FA22
:1014700070BD200032002900243000F04BFDF4E75D
:10148000F0B5C646124B00B59846124C124E134F9B
:1014900015E0FFF737F84346DB68DD68281DFFF7E6
:1014A000C9FA3368013B33602368013B2360FFF7CF
:1014B00035F8286B01F08CFA280001F089FA2368CE
:1014C000002BE6D13B68012BF9D9FFF70FF8F6E7BF
:1014D00090180220E8170220E41702203C15002093
:1014E00000221A4B70B51A4C1A60236819491B6BFD
:1014F0001A688A4202D15968914220D02068216836
:10150000343105F091FE144D14482B6800E0013B86
:101510009900CA1892008258002AF8D0C918890088
:101520004618726808315268411872608A4203D0C6
:10153000D26822602B6070BDF2687260F8E79A682A
:101540008A42DBD1DB689342D8D1DCE7B0180220B5
:1015500028150020A5A5A5A5F41702203C150020FC
:10156000F8B5CE464746960080B5804630000D005F
:10157000994601F0EDF9071E00D1CEE0702001F090
:10158000E7F9041E00D1CFE07022002104F0DEFF55
:101590003200A5213800276304F0D8FF236B043EF6
:1015A0009C46072366449E43002D5FD034232A784F
:1015B000E2542B78002B56D035236A78E2546B78AE
:1015C000002B50D03623AA78E254AB78002B4AD0B7
:1015D0003723EA78E254EB78002B44D038232A7979
:1015E000E2542B79002B3ED039236A79E2546B798F
:1015F000002B38D03A23AA79E254AB79002B32D0B1
:101600003B23EA79E254EB79002B2CD03C232A7A55
:10161000E2542B7A002B26D03D236A7AE2546B7A6F
:10162000002B20D03E23AA7AE254AB7A002B1AD0AA
:101630003F23EA7AE254EB7A002B14D040232A7B32
:10164000E2542B7B002B0ED041236A7BE2546B7B50
:10165000002B08D04223AA7BE254AB7B002B02D0A4
:101660004323EA7BE25443230022E254089D1F2DCA
:1016700060D8271D3800E562E564FFF7BFF9200058
:101680001830FFF7BBF920235D1B4A464146300066
:101690002461A5616462FEF719FF099B2060002B9D
:1016A00000D01C60FEF72EFF404A414E1368013304
:1016B00013603368002B48D03E4D2B68002B3BD085
:1016C0003D4BE16A98463D4B1A6801321A603C4B2B
:1016D00062641A688A4200D2196042468B005B1825
:1016E0009B00D1184A689068A260E06090684760EB
:1016F0009760424661614146D2580132CA50FEF7B6
:101700000DFF2B680125002B09D03368DA6AE36AE4
:101710009A4204D2FEF7EAFE01E001256D4228005C
:101720000CBC90469946F8BD0125380001F050F9EF
:101730006D42F4E71F259CE73368E16ADB6A8B4260
:1017400000D834601C4B9846BDE734601368012B09
:1017500004D0194BE16A9846164DB4E7164B9846EB
:101760001D00A0239B004344994628001435FFF731
:1017700039F9A945F9D1134B99461800FFF732F909
:10178000114D2800FFF72EF91048FFF72BF91048EC
:10179000FFF728F90F48FFF725F94A460E4BE16A93
:1017A0001A600E4B1D60034D8DE7C046E417022002
:1017B00028150020781802203C150020F017022080
:1017C000F417022020180220341802206418022086
:1017D000901802207C1802203015002034150020BB
:1017E000F8B58020CE464746C00080B501F0B0F87D
:1017F000051E79D0702001F0ABF8041E00D179E00D
:101800007022002104F0A2FE8022A5212800256379
:10181000D20004F09BFEFF2292009446236B3822F4
:1018200063441D0007239D43524B261D6363002321
:10183000A3540B32A3543000E362E364FFF7DEF8F5
:1018400020001830FFF7DAF8202300224A49A3616C
:10185000280024616462FEF739FE484B20601C605A
:10186000FEF750FE464A136801331360454B984615
:101870001B68002B4CD0444D2B68002B3ED0E16AF6
:10188000424F434B1A6801321A60424B62641A6835
:101890008A4200D219608B005B189B00F9184A68D5
:1018A0009068A260E060906846609660FA58616156
:1018B0000132FA50FEF732FE2B68002B05D043466A
:1018C0001B68DA6AE36A9A422BD300F013FF0128FF
:1018D0000AD172B60122304B52421A6000222F4BBD
:1018E00028601A60FEF768FE2D4B1B680CBC904602
:1018F0009946F8BD280001F06BF8F5E743461B68F0
:10190000E16ADB6A8B4201D843461C601F4FB8E78F
:1019100043461C601368012B06D0E16A1B4F1A4D29
:10192000AFE7FEF7E3FDD0E7A023184F9B009946F1
:101930003D00B94428001435FFF754F84D45F9D15E
:10194000184B99461800FFF74DF8174D2800FFF780
:1019500049F81648FFF746F81548FFF743F81548C9
:10196000FFF740F84A46144BE16A1A60134B1D60BA
:10197000054D86E749444C45811400104C1802205F
:10198000E417022028150020781802203C150020BA
:10199000F0170220F417022058180220A418022081
:1019A000B4010020201802203418022064180220FC
:1019B000901802207C1802203015002034150020D9
:1019C000024A1368013313607047C046EC170220C7
:1019D000014B18687047C046A4180220014B1868D4
:1019E0007047C046E4170220F0B5DE4657464E4623
:1019F0004546E0B5644B83B01B68002B00D0A1E0E6
:101A0000624B1A68013290461A60002A60D0604B1F
:101A10009B465B461B68984572D35E4B99461B6894
:101A20001B68002B00D1AAE000235B4E01935B4BA7
:101A3000B4469A465A4D39E000215961116801397E
:101A400011609A6A002A0FD0D969186A56688860AE
:101A5000186A4160190018318E4200D170E00021EF
:101A600099621168013911605246D96A126891422F
:101A700001D9524611608A0052189200AE1870685F
:101A800087689860DF6087687C6084605E61AB58BF
:101A90000133AB5063461B68DB6A994201D90123CD
:101AA00001934B461B681B68002B62D04B461B689A
:101AB000DB68DB685A68904557D35A699868D968DB
:101AC0001C1D816048605068A042B5D15160B3E7E9
:101AD000304B344A196810681860116032490A683E
:101AE00001320A601A681268002A37D1284B9B46D7
:101AF00001235A465B4213605B461B6898458CD2B3
:101B00000023274D244E01933368DA6A93009B1813
:101B10009B00EB58012B01D901230193234B1B6838
:101B2000002B18D0224B1B68002B01D001230193FE
:101B3000019803B03CBC90469946A246AB46F0BD26
:101B400050608CE7194A13680133136005F06EFB8F
:101B500000230193ECE705F069FBE3E71B680C4AFF
:101B6000DB6893461B68136053E75B4666461A6062
:101B7000CAE7664601235A465B421360C4E7002366
:101B8000074D054E0193F5E7EC170220A41802203B
:101B9000581802203015002028150020F4170220C4
:101BA0003C150020341500205C180220601802202B
:101BB000B0180220F0B5DE4657464E464546E0B521
:101BC00083B0FEF79FFC4E4B1A68013A1A601B68FF
:101BD000002B61D14B4B1B68002B5DD04A4B9846C4
:101BE0001B68002B00D188E0484B494F9B460023DF
:101BF0009A4601339946474E474D01974346DB6865
:101C0000DB68D969186A9A6A88601C6A6160190081
:101C1000546818318C426ED051469962116801396E
:101C200011605A699868D968546881604860181DC5
:101C300084425ED01168013911603168DA6A8A42E3
:101C400000D932609100891889008C466C1861684F
:101C50008F689960DF608F68786088605C61634638
:101C60006146EB5801336B505B461B68DB6A9A4256
:101C70001DD94B46019A136043461B68002BBDD10A
:101C8000264B17001A681268002A1AD01B68DB68F6
:101C90001A68234B1A6017E00024FEF73FFC20006F
:101CA00003B03CBC90469946A246AB46F0BD4346C5
:101CB0001B68002BA2D1194B019F1A681268002AD9
:101CC000E4D1174B013A1A60164E3468002C09D043
:101CD0000125FFF789FE002800D03D60013C002C63
:101CE000F7D134603B68002BD6D0FEF7FFFB012410
:101CF000D3E751609EE750608EE7054FE4E7C046AA
:101D0000EC170220E4170220641802202815002096
:101D1000B0180220F41702203C15002030150020D6
:101D2000581802206018022070B5041E1DD0164AF3
:101D3000136801331360154B00211E686D23144D89
:101D4000A4192A682868D1540430FEF773FE2B6862
:101D50005C60A6420CD90F4B186829680431FEF765
:101D600051FEFFF727FF002801D1FEF7BFFB70BD32
:101D7000094B186829680431FEF744FE074B1A68BE
:101D80009442EED21C60ECE7EC170220A41802206B
:101D90002815002034150020301500205818022086
:101DA000054B10B51B68002B03D00122034B1A60B2
:101DB00010BDFFF795FBFBE7EC170220B0180220DF
:101DC00070B51F4D0C0029681831FEF71BFE1D4B26
:101DD00000211E686D232A682868D1540430FEF75C
:101DE00029FE631C17D02B68A4195C60A64206D993
:101DF000154B186829680431FEF704FE70BD134BBB
:101E0000186829680431FEF7FDFD114B1A689442E9
:101E1000F4D21C60F2E70F4B29685A6890688A6018
:101E20002968C860296890680431416029680431D4
:101E300091602A6853611A6801321A60DEE7C04671
:101E400028150020A4180220341500203015002089
:101E5000581802207C180220802370B5274C1500EA
:101E60001B0622680B439361436822689968D3611B
:101E7000226811622268996818324A60226800213B
:101E800018329A60236898620368013303601C4B20
:101E90001E686D2322682068D1540430FEF7CAFD05
:101EA0006B1C17D02368AD195D60AE4206D9154B87
:101EB000186821680431FEF7A5FD70BD124B186843
:101EC00021680431FEF79EFD104B1A689542F4D24A
:101ED0001D60F2E70E4B21685A6890688A6021689D
:101EE000C8602168906804314160216804319160C4
:101EF000226853611A6801321A60DEE72815002053
:101F0000A418022034150020301500205818022093
:101F10007C18022070B52A4C43680D0021689E6829
:101F2000CB6121680E6221689E681831716021685A
:101F30001831996023689862036801330360214B6C
:101F4000002A1CD01B6800216D2322682068D15410
:101F50000430FEF76FFD1C4B21685A6890688A6058
:101F60002168C860216890680431416021680431AB
:101F70009160226853611A6801321A6070BD1E6850
:101F80006D2321682068CA540430FEF753FD23688E
:101F9000AD195D60AE420BD80C4B18682168043156
:101FA000FEF730FD0A4B1A689542E7D21D60E5E75F
:101FB000084B186821680431FEF724FDDEE7C046AF
:101FC00028150020A41802207C18022030150020BB
:101FD0005818022034150020C368F0B5DB68D869B2
:101FE000196A9A6A816048601800546818308442FF
:101FF00045D000219962116801391160264A1268A2
:10200000002A2CD19968D8685A698860D8681D1D43
:1020100041605168A94234D01168013911601F4AEA
:10202000D96A1068814228D88A001D4C5218920043
:10203000A618706887689860DF6087687D60856033
:102040005E61A3580133A350164B00201B68DB6A66
:102050008B4203D20122144B01301A60F0BD134AA7
:1020600051688C68D9611C628C68606088601168F6
:102070009A6201311160D96AE6E71160D4E75160D4
:10208000B7E71168506001391160044AD96A1068D5
:102090008142C9D9F1E7C046EC170220F4170220AB
:1020A0003C15002028150020B018022064180220DA
:1020B00080231B06F0B50B43846841680269036006
:1020C000C3688C60846861605168814230D00021AF
:1020D00001611168D8680139116099685A6988608E
:1020E000D8681D1D41605168A94223D0116801398B
:1020F0001160114AD96A1068814200D911608A00C2
:102100000E4C52189200A618706887689860DF60BD
:1021100087687D6085605E61A3580133A350084BDA
:102120001B68DB6A994202D90122064B1A60F0BD96
:102130005460CCE75060D9E7F41702203C1500202A
:1021400028150020B0180220034B1B680360034BC6
:102150001B6843607047C0465C180220A418022028
:10216000F8B50E000700FEF7CDF96D23164C174A9F
:1021700021681568ED5C002D07D00021012412684C
:10218000D154FEF7CBF92000F8BD33685A1C19D0A2
:102190000F487A68844605683868A84205D08A42A4
:1021A00003D8002301243360EBE78D1AAB42F8D942
:1021B0005B1A9B18336063461B683B6023680024EE
:1021C0007B60DEE70024DCE7A4180220281500204D
:1021D0005C1802200122014B1A607047B0180220DF
:1021E000014B18687047C04628150020F8B5041E3A
:1021F00021D0204DC26A2B68DB6A9A4214D28369CF
:10220000002B04DB2B68D96A20235B1A83619300BF
:102210009B18194E9B006269F3189A420DD02B68E7
:102220000120DB6AE36205E02B68C06CDB6A984240
:1022300080414042F8BD0020FCE7271D3800FEF732
:10224000F9FB2B68DA6A0D4BE26219688A4200D901
:102250001A6093009B189B00F1184A689068A2606E
:10226000E060906847609760F25861610132012038
:10227000F250DFE7281500203C150020F41702205B
:1022800070B5041E08D0036DC26AC16C013B0365C2
:102290008A4201D0002B01D0002070BD051D28000E
:1022A000FEF7C8FB2023E26C9B1AA3610B4BE26292
:1022B00019688A4200D91A60930009499B189B004B
:1022C000C81842689668A260E66096687560956076
:1022D000CA58606101320120CA50DEE7F4170220BB
:1022E0003C15002070B5041E08D0C36C8B4206D389
:1022F000E26A9A4202D0216D012905D070BDE26ADE
:102300000B009A42F7D1F9E7A169E362002902DBE9
:102310002021CB1AA36193009A18104D9200636993
:10232000AA189342EAD1261D3000FEF783FB0C4B1E
:10233000E26A19688A4200D91A6093009B189B00D0
:10234000E9184A689068A260E0609068466096600C
:10235000EA5861610132EA50D0E7C0463C150020DE
:10236000F4170220044B1A68196890691A68202330
:10237000C96A5B1A9361704728150020044B1A68DC
:10238000002A03D019680A6D01320A65186870477F
:1023900028150020F0B5CF4BDE4657464E46454641
:1023A0009B46CD4BE0B59946CC4B89B09A465B46EF
:1023B0001B681C68002C00D191E0DB681C68FFF7EB
:1023C000FFFAFFF705FB4B461B680500834200D967
:1023D00096E04B461860844200D82BE10022C04BA7
:1023E000611B1B6818000193FFF726F8FFF7E2FB5B
:1023F00000285BD02826BA4B00221B6804A91800CD
:102400000193FEF75FFE0028D1D0049B0193002BBF
:1024100057DB069D6B69002B02D0281DFEF70AFBD7
:10242000FFF7D6FA4B461B680190984200D2B1E004
:102430004B46019A1A60049B092BDCD8A94A9B00E1
:10244000D3589F460123A85D05990343AB55AA695C
:10245000019C8B186B602D61A34200D9DFE0611AEB
:102460008A4218D8410700D51BE101239843A8559B
:1024700028002B6A9847BEE70122AB5D0199134300
:10248000AB55059B2D615A18AB616A608A4200D931
:10249000CAE0002BAFD05346291D1868FEF7B2FAE8
:1024A000A9E70122AB5D9343AB55A4E7FEF71EF805
:1024B000A0E7AB5D9A0700D4E9E001229343AB5556
:1024C00099E7079B0193069B01990293059B02984C
:1024D00003939847049B0193002B8CDB99E7FFF74C
:1024E0006FFAFFF775FA4B461B680500984207D351
:1024F0004B461D6053461B681A6853425A416EE7AB
:102500005B461B681A68002A39D0A8460BE00122F6
:1025100093432732A354236A200098475B461B68E5
:102520001A68002A2AD0DB68DC681F68251D28008D
:10253000FEF780FA28230422E35C1A42E7D0A3695D
:102540002461FE18FF4366609F420AD33700FF43B1
:10255000236A20009847A3692461F6186660BB428D
:10256000F4D9534629001868FEF74CFA236A200074
:1025700098475B461B681A68002AD4D145465146E5
:102580005A4609681160524613604B461D60FFF7BA
:1025900011FB2FE75B461B681A68002A38D00295AA
:1025A0000AE001229343A355236A200098475B4623
:1025B0001B681A68002A2AD0DB68DC681F68231DA4
:1025C00018009846FEF736FA0422A35D1A42E8D0B6
:1025D000A3692461DD19FF4365609F420AD32F0080
:1025E000FF43236A20009847A3692461ED186560C2
:1025F000BB42F4D9534641461868FEF703FA236AF2
:10260000200098475B461B681A68002AD4D1029DB7
:1026100051465A46096811605246136008E7A142C4
:1026200002D9994200D81DE75B46291D1868FEF7BC
:10263000E9F9E0E6FFF7BEFA5B461B68DB68DE6897
:10264000331D18009846FEF7F5F92822B35C5907A8
:102650000DD401218B43B3543000336A9847C9E647
:102660002C1BA34217D83000336A98473C00B3694B
:102670003661E7187760AF42F2D9AC4201D9BC426B
:10268000F1D95B4641461868FEF7BCF9E4E728003B
:1026900000F09EF9AFE6534641461868FEF7B2F9DE
:1026A000DAE7019F07E0FB1A9A421DD82B6A28003F
:1026B00098472300AA69D4186C602D61A742F2D212
:1026C0009F4201D2A342F1D95B46291D1868FEF74B
:1026D00099F9CDE62C15002050180220381500205D
:1026E000A81802204C7300105346291D1868FEF7E5
:1026F00089F9BDE670B582B0FDF704FF174C236879
:10270000002B12D0FDF70AFF23680020002B0AD00F
:10271000134B802201931F23124900931248002378
:10272000D200FEF71DFF02B070BD104E3000FEF764
:1027300059F90F4D2800FEF755F90E4B00221E6087
:102740000D4B10210A201D60FEF778FA206000284A
:10275000D8D00A49FEF7FAFDD4E7C046A8180220EF
:10276000AC1802207C73001095230010F81702208B
:102770000C1802202C15002038150020747300104E
:1027800010B514001A00022384B05B420093054B7D
:10279000019002911868694600230394FEF7BAFB82
:1027A00004B010BDA8180220F8B50D00EFF3108793
:1027B00072B60C4B10309B6884001E59B14205D094
:1027C000094B9E420BD3094B9E4208D2054B9B6896
:1027D0001D51BFF35F8F87F310883000F8BD01F003
:1027E00093FCF3E700ED00E0C0010010CC01001005
:1027F000024B18688007C00F7047C04600C00640F3
:10280000F8B5EFF3108772B60E4E3368002BFCD08C
:10281000BFF35F8FCB08C4180725A446C45C01230F
:102820000D40AB4018002040234208D162462343AC
:102830001370BFF35F8F306087F31088F8BD10000E
:1028400001F044FC2C0100D0F8B5CE4647468C463A
:1028500080B5EFF3108872B6214D2C68002CFCD0A7
:10286000BFF35F8F9A422CD8D4080721055D061963
:10287000012411408C402C421FD007218946063983
:1028800009E0D408055D06194C460F001440A74026
:102890003C002F4211D001329342F2D2012040423B
:1028A000BFF35F8F00220E4B1A6088F31088002858
:1028B0000FDB0CBC90469946F8BD2C4310003470D9
:1028C000EEE7BFF35F8F00232B6088F310880120B1
:1028D00040426346002BECD0089801F0F7FBC0465D
:1028E0002C0100D070B5EFF3108672B60A4C236845
:1028F000002BFCD0BFF35F8F07230122CD081940C6
:102900008A40435D93434355BFF35F8F00232360A9
:1029100086F3108870BDC0462C0100D00021044B06
:10292000044ABFF35F8F02C39342FAD17047C04697
:10293000000100D0800100D0044A1078431CDBB2B3
:10294000172B00D9102313707047C046B801002020
:1029500070B507250400054205D00300AB430833DA
:10296000834217D91C00FFF72BF8154B1D68002D6B
:1029700020D0002C17D0134A134913681C198C421D
:1029800011D8A3420FD2ED181460FFF713F9002DF0
:102990000ED10AE0FFF714F8094B1A68002A02D199
:1029A0000A4AAA431A60FFF705F904F03BFC002528
:1029B000280070BD0722054D95431D60D9E7C0462C
:1029C0002415002054180220F7FF0100E31700200F
:1029D0007047C046094A830094464022634410B5BC
:1029E0001C68C0006240C02414408022520113437E
:1029F0001C60034B9C466044416010BD04C0014014
:102A0000004001400A4B80009C460423604400299A
:102A100001D00C230821002A00D10B00026853408A
:102A20000C221A4080235B01184302607047C046A5
:102A300004C0014001238340002904D0034A1360ED
:102A4000034A13607047034A1360FBE780E200E02B
:102A500000E100E080E100E0024B10309B68800064
:102A6000C058704700ED00E070B50D00EFF3108620
:102A700072B60F4A1368002BFCD0BFF35F8F0D4B6B
:102A800010309B6884001B590B4A934203D09D422F
:102A900001D001F039FB074B9B681D51BFF35F8FDD
:102AA000BFF35F8F0022024B1A6086F3108870BD5F
:102AB000240100D000ED00E0CD010010F0B5DE46AD
:102AC00057464E464546E0B50C0083B0EFF31089FB
:102AD00072B6594A1368002BFCD0BFF35F8F574B77
:102AE0009A68030010339F00D559554A9046954285
:102AF00032D0A54243D0534EAA1B2F2A2CD80122F4
:102B0000824092465146504A126811400191514606
:102B10004E4A1160BFF35F8FEFF305829346002AA0
:102B200033D101232A009A4393689C4208D178E06C
:102B30004B005B189B00F3189968A1422AD01A0039
:102B4000062151560029F3DA019B002B19D0524679
:102B50003F4B1A603C4B1A60384B9B68DD51BFF30A
:102B60005F8FBFF35F8F0022334B1A6089F31088A9
:102B700003B03CBC90469946A246AB46F0BD15005A
:102B8000EAE75246314B1A60E6E79342C9D001F0BA
:102B9000BBFAC6E706215956002922DB4A00501825
:102BA000800034188046A0689860E079D8710620CB
:102BB00020569871A0797F2824D8A488F01A64053B
:102BC000241544440019E0240005400D240220434C
:102BD000988052181F4B9200B6181A781970B2716B
:102BE000B2E7594600290FD1FF3191711A499180FE
:102BF00018490A789A71194A9B1B5B415A43120D76
:102C00000A70A1E71648E3E7164A1749D21A083AAC
:102C10005002400D01439980144952080A43DA805A
:102C200092E70621515613000029B7DA5A46002AC6
:102C3000EAD14546DCE7C046240100D000ED00E0C3
:102C4000CD010010BC01002000E100E080E100E0C7
:102C500080E200E0B718022001BDFFFFAAAA000031
:102C600001BD0000F601002000F0FFFF00F8FFFFAB
:102C7000F0B5EFF3058101240443EFF3108672B63B
:102C8000214A1368002BFCD0BFF35F8F1F4B050058
:102C90001F4AED1A6D416A43120D1E4D8900AF683F
:102CA00052B27F58A7421CD00621595691421CD0DF
:102CB00012215956914222D01E215956914220D0BC
:102CC0002A2159560324914210D0134B19781A70B7
:102CD0008171BFF35F8F00220B4B1A6086F310885F
:102CE000F0BDAB680D4C5C50EFE7002461000919A2
:102CF00089005B18FF21997109499980E5E7012452
:102D0000F4E70224F2E7C046240100D0BC01002011
:102D1000AAAA000000ED00E0B7180220CD010010C3
:102D200001BDFFFF054B064A1360064A136053605E
:102D30009360D3601361536193617047808080809A
:102D400000E400E004E400E0024B9C46614489009A
:102D5000016070474000003410B50400FFF7ECFD3F
:102D600001002000FFF7F0FF01235B426360BFF327
:102D70005F8F10BD10B50400FFF7DEFD01002000DD
:102D8000FFF7E2FF01235B42636000232372BFF37E
:102D90005F8F10BD83680B4810B584466144624460
:102DA000090112019A18591854684B6801209C4275
:102DB00001D802D00020C0B210BD12680B689A4240
:102DC000F9D8F7E7FFFFFF0F074810B50268EFF3E8
:102DD000108172B61368002BFCD0BFF35F8FFDF734
:102DE00039FC0020002110BDC4170020F8B557465B
:102DF00045464E46DE46E0B599460CAB19780DAB1C
:102E00001B78050090469A460768002912D1BE7BC0
:102E1000002E45D074003B68A419033C1B195A7856
:102E20003100BA73002A00D1FA7300229A705A70E6
:102E30001A7003E00E004C006418033C2C4B002277
:102E40009C46AB6861449C464346090161440B6063
:102E50004B464B600A9B8B600B9BCB603B681B19FE
:102E60009A705A701A707B7B9B46002B2CD03200D4
:102E70005946B8687B6898473A68002817D05B467F
:102E800058465B005B441419033BA070D118D35C17
:102E9000002B00D063705B460E707B73B34514D07B
:102EA00030003CBC90469946A246AB46F8BD5B4616
:102EB0005B005B44033BD3189E701119125D002A1E
:102EC00000D05A705B460B707E7342464B46287D9D
:102ED00000F038FB041E06D05346002B03D131000E
:102EE000286800F075FD0E9B002BD9D01C70D7E729
:102EF000FFFFFF0FF0B5DE4657464E46454600231E
:102F0000E0B58BB00893674B8200D45800239B46F2
:102F1000099000F09DFA626806000F00EFF310853B
:102F200072B61368002BFCD0BFF35F8F23689C46FA
:102F30005B7B9946002B00D169E0A2685A4B904612
:102F40004B441B01984443461A685B681000190003
:102F5000801BB941002900DC63E0099800F0F2FA17
:102F600000230022984600230692079300239A46E6
:102F70006368BFF35F8F5A461A6085F31088534623
:102F8000002B08D10028C4D10BB03CBC9046994618
:102F9000A246AB46F0BD089B414618024B4618437B
:102FA000D047626806000F00EFF3108572B6136811
:102FB000002BFCD0BFF35F8F002F50DB33003B436F
:102FC00002D02369002B61D12368DA7B002A07D065
:102FD00051008A1819688C4649466244033A517078
:102FE0009A7B002A01D14A469A734A46DA734B46C5
:102FF000E168013BCA5C0132CA545B4623616368E5
:10300000BFF35F8F5A461A6085F3108881E700236B
:1030100000229846002306920793002300209A4638
:10302000A6E7002902D1002800D096E700216046DB
:1030300000F02CFC43461A685B68069207934346EF
:103040009B689A464346DB689846E3684B44013BDD
:103050001B7808931B0203432361002088E7236940
:10306000002BB1D0069A079B921BBB41002B15DBAE
:10307000594604910121039149460291414601912B
:10308000514620000091FFF7B1FEB6E700F0E0F9ED
:1030900032003B0012184B41002BE9DA0122034BAE
:1030A0005242E5E714150020FFFFFF0FFFFFFF7FEF
:1030B00010B5144C6368002B04D00A211248FFF7A6
:1030C00043FE10BD2300114A1021206800F0F8FAD9
:1030D000032000F0B1F9032000F09EFA03200C4910
:1030E00000F0EAF9FFF728FC0A4B9C4603232375FE
:1030F000D0231B061B6860446375074B800060602B
:10310000DC60DAE704020020C4170020952D0010CF
:10311000F52E00104000003414150020F0B54E4686
:103120004546DE465746E0B585B0019310AB1B78A7
:1031300080460393002300269946009243465A682E
:10314000EFF3108B72B61368002BFCD0BFF35F8FC8
:1031500043461D68AC7B002C43D067002B683F19A9
:10316000033FDB195A78AA73002A00D1EA7342465A
:103170009E705E701E709268494B94460099019A49
:10318000E3181B01634419605A600E9A9A600F9A03
:10319000DA602B68DB199E705E701E706B7B9A463E
:1031A000002B68D022001900A8686B6898472A682D
:1031B000002853D0534650465B005344D719033B75
:1031C000B870D118D35C002B00D07B7053460C70C4
:1031D0006B73544550D04346DB681B19013B18788C
:1031E00000E0002043465B68BFF35F8F1E608BF3F7
:1031F0001088002C51D04B46002B08D100022043F0
:1032000005B03CBC90469946A246AB46F0BD039B38
:10321000002B40D00E9B00200F999847030004001C
:103220000D000B4337D000290ADA009A019B121BCC
:10323000AB4100920193002B0ADB039B99467DE78B
:1032400000F006F924184D4100940195002DF4DAA0
:103250000123144C5B4200930194EEE753465B005C
:103260005344033BD3189C70D119D25D002A00D07F
:103270005A7053460B706C734346187D009A019B3D
:1032800000F060F981460028A5D043462100186867
:1032900000F09EFB9FE70020B2E701204042AFE72D
:1032A000FFFFFF0FFFFFFF7FF0B5EFF30583CE4673
:1032B000474680B505000C0085B0002B12D02C4B82
:1032C0000020596A8C4203D89B6A0130AB4204D378
:1032D00005B00CBC90469946F0BD611A481E81416C
:1032E000C8B2F5E7234E02930193234B02000093EB
:1032F00030000B00FFF712FF031EE0DD20BF7168F6
:10330000EFF3108772B60A68002AFCD0BFF35F8F14
:10331000DAB294463068427B62451DD0FF221A40E3
:103320005100894601689144884649464144033921
:103330008978002913D0F1681B0A88464244013A73
:103340001278DBB29A420FD07368BFF35F8F00220E
:103350001A6087F31088B2E7FF221A40EBE7326960
:103360009342F1D13161EFE7614600F031FBEBE7C9
:103370000040054004020020C92D0010F0B5EFF315
:103380000582D6464F4646461000C0B51038EFF3CA
:10339000108872B6214C2368002BFCD0BFF35F8FDE
:1033A0000123190081401E4D1F006963AA461D4D6F
:1033B00029601D4D2E78AC463500C5402F402B426C
:1033C00015D05346194D5F6A83005D59AF4218D33B
:1033D000174A8E439B5862461670BFF35F8F0022D8
:1033E000226088F31088002B06D0984704E0BFF3D2
:1033F0005F8F276088F310881CBC90469946A246D0
:10340000F0BD0C4B92009C46624413681360BFF3FE
:103410005F8F0023236088F31088EDE7280100D038
:10342000004005403C700540B9180220C817002034
:10343000BC030020D03F054010B50100024A0348FC
:10344000FFF7DEF910BDC04684730010B6180220E5
:10345000034B596A0A00986A596A8A42FAD170473E
:103460000040054070B504000D00124A536A19006F
:10347000966A536A8B42FAD13000190024184D41E4
:10348000AB4211D80ED02B000A494A6A9A42FCD3AB
:1034900007D1084A02E0516A994202D1916AA142D9
:1034A000F9D370BDA642EED9012301246442E51789
:1034B0005B42E9E70040054070B504000D00EFF302
:1034C000108672B61A4A1368002BFCD0BFF35F8FC8
:1034D000002D1BD02000FFF7BFFA164981420AD009
:1034E0002000FFF7C1FA01212000FFF7A3FA012312
:1034F000A340114A1360114BA400E550BFF35F8F46
:1035000000220B4B1A6086F3108870BD0B4BA20093
:10351000D5500122A2400A4920000B7893430B703A
:103520000449FFF7CBFA00212000FFF783FAE5E713
:10353000280100D07D33001038600540BC03002016
:10354000B9180220F0B54F46D6464646C0B507002A
:103550002C4C616A0D00A66A616AA942FAD18B42BD
:1035600008D805D001201CBC90469946A246F0BD63
:10357000B242F7D9EFF3108972B6234801680029E7
:10358000FCD0BFF35F8F01252049BD408C460978F0
:103590001C4C0E002E438846F1B28A4661465046C6
:1035A0000870391D1A48890065630A51B9000B502B
:1035B000216A0020294219D0616A0800A66A616A5E
:1035C0008142FAD18B4219D801D1B24216D8C245F4
:1035D00016D00C4B1F201D625D6301230740BB40CA
:1035E0000C4A1E381360634642461A70BFF35F8F61
:1035F0000022054B1A6089F31088B4E70020F5E734
:103600000120F3E700400540280100D0B91802204E
:10361000C817002080E200E010B5EFF3108472B606
:103620000A490B68002BFCD0BFF35F8F0123834056
:10363000074A0848136202789A430270BFF35F8F0B
:1036400000230B6084F3108810BDC046280100D011
:1036500000400540B918022070B505000E001400A6
:10366000002924D0002A24D080686B6898472968F4
:1036700000280ED063001B197200033B9219CB186F
:10368000033A9E7088188A5C002A14D104703000B6
:103690000EE073009B196200033B1219CB18033A2A
:1036A0009C7088188A5C002A00D05A70067020002E
:1036B00070BD0800FCE75A7004703000F8E7C0469F
:1036C00030B583600023CCB243730133047342608E
:1036D0008373C4730D000068012C06D9421C0133AA
:1036E000DBB2137003329C42F9D1FF2129404B0019
:1036F0005918002340180338437030BDF8B5CE4642
:10370000474606000C0080B5002907D04D0003682D
:103710006D18033D5A195778002F04D120000CBCB6
:1037200090469946F8BD7900C91903398846434443
:103730005978894600215970517073683A00210008
:10374000806898473368002814D042469A189470CD
:1037500059195B5D002B00D053700F70270049464C
:103760003000FFF7CBFF390002003000FFF774FF95
:103770000400D3E7424641465D19AF709A185B5C7E
:10378000002B00D06B701470E9E7C046F0B55746C7
:103790004546DE464E46E0B50D006B0001685B19FC
:1037A000DF1E0400C85D83B00192CA19002850D002
:1037B00043001B18033BCB185E78B446002E1AD189
:1037C000019E002E42D0E67B002E04D073009B1990
:1037D000CB18033B5D70A37B002B00D1A573E57371
:1037E00000282FD10023537003B03CBC904699466B
:1037F000A246AB46F0BD72006244033A89184A788B
:10380000904600224A7091465A7001003200200012
:10381000FFF722FF43468246002B07D05B0021685A
:103820004344033BCB185A78002A16D142465146EE
:103830002000FFF711FF2168019BCA19002BC2D19C
:103840000028CFD043001B18033BCB1800219970F0
:10385000C8E7019B002BB6D1C4E75000801803389D
:1038600009184878834648464870587041462000F9
:10387000FFF7F2FE594680462000FFF73FFF414622
:1038800002002000FFF7E8FE8046CFE7F0B54E4685
:103890004546DE465746E0B5467B040075000068A5
:1038A000AD19033D83B00191415D4219002952D009
:1038B0004B005B18033BC3185F78BC46002F1CD13C
:1038C000019D002D44D0E57B002D04D06B005B19D9
:1038D000C318033B5E70A37B002B00D1A673E67375
:1038E000002931D1002330005370617303B03CBC18
:1038F00090469946A246AB46F0BD7A006244033A30
:103900008018427893460022427091465A702000F7
:103910003A00FFF7A1FE5B468046002B07D05B0014
:1039200021685B44033BCB185A78002A17D15A46CA
:1039300041462000FFF790FE019B010020684219DC
:10394000002BC0D10029CDD04B005B18033BC3181E
:1039500000209870C6E7019B002BB4D1C2E750004D
:1039600080180338091848788246484648705870CD
:1039700059462000FFF770FE53468346002B07D0C0
:103980005B0021685344033BCB185A78002A06D1C8
:10399000594652462000FFF75FFE8346C7E75000B6
:1039A00080180338091848464F78487058705146B7
:1039B0002000FFF751FE390081462000FFF79EFEF0
:1039C000494602002000FFF747FE8246E0E7C04676
:1039D00070B5040000292CD0437B8B422ED00568A3
:1039E00048004018033828188278002A21D0530054
:1039F0009B18033BEA5CEE188A4202D11BE0002AC6
:103A000008D053009B18033BEB185A788A42F6D132
:103A100042785A7000230122837043702000FFF720
:103A2000B5FE617B02002000FFF716FE60730120E7
:103A300000E0002070BD43783370EBE701221900ED
:103A4000FFF7A4FE60730120F4E7C046F8B5CE4648
:103A50004746040080B506200D0000F023FA061E3C
:103A600052D0524B5249E3185A4253418022D2035A
:103A700094465B4213404F4A634413604E4A1360BE
:103A800018008A689043FBD1484B8021E3185A42C2
:103A900053414A4A5B0049000620995200F002FA5D
:103AA0002900C00001F0CEFEC30932D14022904669
:103AB0003F3A6262A362266BF30736D42700802563
:103AC000E36A00232C376D013D432B6006202663FB
:103AD00000F0E8F94146800001F0B4FE236B0600D7
:103AE0009846DB073BD46022E36A5A406E231340BA
:103AF0002B6043462363802310229B013B431A60C3
:103B00002F4B23630323A36430000CBC90469946DB
:103B1000F8BD2C4A93423FD900232B4A90462B4AAA
:103B20006262A362266BF307C8D52200C02330323D
:103B30009B011343224A06201A60656AA36AAD01FD
:103B4000ED1800F0AFF9224901F07CFEAD02010052
:103B5000280001F077FE0021FFF784FCAEE7220089
:103B6000C02330329B011343154A06201A60636A52
:103B7000A26A9B019946914400F094F94B4614497E
:103B80009B02994601F05EFE0100484601F05AFE94
:103B90000021FFF767FCA6E77F2210409A019046BC
:103BA000013040081A008044030082E70080FCBF17
:103BB00000C0004000E0004000F00040FC1802207F
:103BC00001030000FEFF0000C0FF3F00FFFF0000F8
:103BD0004E0E000030B50C2083B000F0DDF9FEF78A
:103BE00007FE00280ED0994B994A1A605A609A60D5
:103BF000DA601A615A619A61DA611A62954A5A6208
:103C000003B030BD944CA06700F0CEF90122934B75
:103C10001A60636C012BFCD10322914B1A608E4A0F
:103C2000936B012BFCD1013301218E4A8E48009306
:103C3000043300F061F905238C4A009301218C487C
:103C400000F05AF98B4B5A68FF2A02D880225200A2
:103C50005A6080227D4C824B21691201854D1A6089
:103C6000002907D0606901F0EDFD431C5800C01821
:103C70000338FDD2E0217F4B02201A6811408022D8
:103C800052012A4311601968484003210140116024
:103C900004219A681142FCD08022802192012A439B
:103CA00009011160802252005A60734B2361734BEB
:103CB0005968FF2900D85A6003227048674B0121D8
:103CC0001A60020093681942FCD0E02513681D4079
:103CD00080235B0103431D6012684A4003211140A9
:103CE00019600221654A93681942FCD08023802123
:103CF0009B010343090119608021614B4900516018
:103D00006361604B5A68FF2A00D8596080225E4B7D
:103D1000E16912015B4D1A60002907D0606901F06A
:103D200091FD431C5800C0180338FDD2E0225549CC
:103D30000B681A4080235B012B431A60802380228A
:103D40009B012B4312011A608022414B52004A60B2
:103D5000E3614E4B5968FF2900D85A6080224C4BD2
:103D6000216A1201494D1A60002907D0606901F0EB
:103D700069FD431C5800C0180338FDD2E0224349B6
:103D80000B681A4080235B012B431A60802380223A
:103D90009B012B4312011A60802380225B004B6041
:103DA0002B4BD20223623B4B5968914200D25A609E
:103DB0008022394B616A1201364D1A60002907D002
:103DC000606901F03FFD431C5800C0180338FDD264
:103DD000E02230490B681A4080235B012B431A60B4
:103DE000802380229B012B4312011A608023DB0277
:103DF0004B60184B6362294B5A68FF2A02D8802215
:103E000052005A608022264BA1691201234D1A608C
:103E1000002907D0606901F015FD431C5800C01847
:103E20000338FDD2E0221D490B681A4080235B0154
:103E30002B431A60802380229B012B4312011A60BE
:103E400080235B004B600E4BA361D9E6D4030020B6
:103E5000006CDC021BB70000008000403CB000405A
:103E600030B00040002F685900800240008C864727
:103E700000C0024030800040001BB7003C80004082
:103E8000405973075480004054B0004060800040A7
:103E900060B000406C8000406CB000404880004042
:103EA00048B00040014B8000C0587047D403002048
:103EB000802270B506000E4C5200A3691D0015400B
:103EC0001342FAD1FA210B4B8900186901F0BAFCB0
:103ED0000A2310212060064A23610B3B6560A36022
:103EE000666193691942FCD0D069400970BDC04633
:103EF00080800040D4030020F8B50400214817005A
:103F00001D000E0001F09EFC0100380001F09AFC3B
:103F1000069A2B04120313432268002A21DB1A4A53
:103F2000A21851424A41802149018C4652420A401E
:103F3000164962440A6016490A60164917008D68DE
:103F4000AF43FBD1C021221D8901114321222660EC
:103F5000A0600A602268002AFCDAE36008230B6094
:103F6000F8BD3F2221680A40B242D8D1A2681205AA
:103F7000120D8242D3D1EE21E268C9020A409A4270
:103F8000CDD1EDE7001BB7000040FDBF00E00040D1
:103F900000F0004000C000408023024A9B00034321
:103FA000D362704700800540AA23064A1B011360B4
:103FB0002F230549D360054B19605368002BFCDAA9
:103FC0007047C0460040024000B0FA000060024066
:103FD0002C4B2D4A70B51A602C4A2D4B2D491A6076
:103FE00010008B689843FBD12B4C2C4B9C4209D280
:103FF000013B1D1BAD080135AD002D1908CC9847BC
:10400000AC42FBD1FFF7E6FD254A214B1A60214A5D
:104010009368DB018033FBD14022224B224C234D9D
:104020009A675A671A67DA66AC4208D2236820009A
:10403000002B21D00C34FEF79DFEAC42F6D31C4C75
:104040001C4DA168C022280002F086FAA560FEF788
:1040500065FCFEF767FEFFF72BF8174C174B9C42E9
:1040600009D2013B1D1BAD080135AD002D1908CC4F
:104070009847A542FBD170BD0834FEF76DFEAC42F7
:10408000D4D3DCE700E00040BFCDFBFEFE7F3C0068
:1040900000F0004000C0004088020020980200208C
:1040A000FFFFFF0100F0014078020020880200209D
:1040B00000ED00E00000002098020020A002002097
:1040C00000BEFDE710B5FFF7FBFFC0460FB400B51B
:1040D000084883B002F098FB049B002B07D005A989
:1040E0001800019101F038FB034802F08DFB01201C
:1040F000FFF7E6FFA8730010B873001010B5014871
:10410000FFF7E4FFBC73001010B50148FFF7DEFFB6
:10411000CC7300107047C046F8B557464E46DE4691
:104120004546E0B51F000A9B05009B460D9B0E000F
:10413000914692469B0718D10B9B0C9A934214D23E
:1041400013000B9AB8469B1A4B444C460F000600CE
:104150001D0022004346013439002020B047AC4204
:10416000F7D1AA4635003E0047460B9B002B38D0BE
:104170009A441C00D04653461A1B5B46013C185D0E
:1041800031003B00A847002CF5D10D9B9B0721D5A2
:1041900043464A469C1A0C9BA3421BD93A009A46B6
:1041A0004F469146E2194B46310020200134A84782
:1041B0005445F7D343460C99DB1B0133B946002223
:1041C000994203D343464A1E4A44D21A4346904674
:1041D0000133984440463CBC90469946A246AB46C3
:1041E000F8BDD046D1E7C046F0B54F464646D64664
:1041F000C0B584B098460EAB1B78129F9946944682
:104200000D9C109B119EBA0725D4002E69D19C42AB
:1042100000D3C2E001223A4092461F2C00D9BBE0F5
:104220000C9A551E302201E0202C03D001342A556F
:10423000A342F9D85246002A0DD0B4420BD21F2C0B
:1042400062D80C9A551E302201E0202C5CD001343B
:104250002A55B442F9D1FA0635D57A055DD4002C39
:1042600057D10F9B102B00D17CE00F9B022B00D16C
:104270008DE030230C9A012413704B46002B27D07D
:104280002D230C9A135501340C9B6246009303971F
:10429000434602960194FFF73FFF04B01CBC9046D2
:1042A0009946A246F0BDBB0663D4202CECD00C9BF3
:1042B0001A19013478231370202CE5D030220C9B7E
:1042C0001B191A700134202CDED04B46002BD7D19D
:1042D0007B0735D43B07D7D520230C9A13550134DF
:1042E000D2E7012215003D40AA463A4220D04A4674
:1042F000002A2AD10C323A4227D19C429DD21F2C4F
:1043000000D88DE7202E19D92024FA06BCD57A05CD
:1043100003D4A3421BD0A64219D00F9B102BC2D0AE
:10432000022BC9D1202CAFD00C9B1B19013440E0CB
:104330009C4200D38FE71F2C00D871E720248AE726
:104340002B230C9A135501349EE7013ED5E7631EDB
:10435000012C00D185E70F9A102A20D0022A25D0FF
:104360001C00ABE7BB060DD478230C9A0124137014
:10437000A4E7202C00D187E758220C9B1B191A7048
:10438000013499E758230C9A0124137096E70C9A8C
:1043900060330124137091E7202400265BE7023C80
:1043A000BA06E9D40C9A12191C0083E70C9A9246BB
:1043B000534462221A707FE710B5002800D110BD67
:1043C00002F0D6F9FBE7C0460B0010B5002802D07A
:1043D00049681B68984710BDF0B5DE46574645460C
:1043E0004E46E0B59BB09B46249B0A909846259B81
:1043F0000B910C924046424619009A4601F0EBFCA4
:10440000002800D0E8E00122404651467F4B52424E
:1044100001F0DCFC002800D0DEE0012240465146DD
:104420007B4B524201F0BCFC002800D0D4E00022BB
:1044300000234046514601F0B3FC002800D0CAE1F9
:104440005346C14609938023289ADB001A400E92F6
:10445000289A1A4201D1062326934C46099B2343EE
:1044600000D0D9E0289B002600271B0500D4AEE130
:1044700000230D93269B19000D9B994200DCB0E1AF
:10448000C81A431E26938023289ADB001A43002370
:10449000002528920D93279B0024AB4200D95C1B7A
:1044A0000223289A1A400E92289A134203D06B4294
:1044B0006B415B421C400D9B002B07D0484609997D
:1044C00032003B0001F00BFC8146099100220023E1
:1044D0004046514601F064FC002805D080200006CB
:1044E0008446099961440991289A4A4B0A9E1340CF
:1044F0004A460493269B0B990293099B03940092CE
:10450000019330005B460C9A884600F0A1F9040044
:10451000002D72D0289B220098061F23C0179843B5
:1045200041465B466530B0470D9B671CDA179C1807
:10453000DB0F98466B1E99460025544001E0202D64
:1045400013D00AAA94461F23200063440A21013590
:104550005E1901F077F93031317020000A2101F045
:1045600071F926000400092EE9D8052306934B466D
:104570000593002304930A33039343463A000A9EAB
:104580000B9F029312AB009339005B4630000195FC
:10459000FFF72AFE0E9B0400002B2ED00C9B279ABF
:1045A000C51AAA4229D93C008146984617004346BD
:1045B00021005A1920205B460135B047AF42F6D89A
:1045C0004C460C992798631A01330022984200D375
:1045D0000AE10134141910E0289B42460493279BFA
:1045E0000B990393269B0A980293534600920193DA
:1045F0005B460C9A00F02CF9040020001BB03CBC78
:1046000090469946A246AB46F0BDC046FFFFEF7FFD
:10461000FFFFEFFFFFF7FFFF764B099D9C46680009
:10462000400D604401F0EAFB734A744B01F075FBE6
:10463000734A744B01F04AFB2B03734A1B0B1A435A
:1046400006000F00714B110048460022099501F049
:1046500034FB6F4A6F4B01F060FB02000B0030002F
:10466000390001F033FB01F0E1FB0D9001F0C6FBD6
:10467000694A6A4B04000D0001F04FFB0022684BB1
:1046800001F024FB01F0D2FB664A0600664B2000D5
:10469000290001F042FB040030000D000F9601F0EC
:1046A000ADFB624A624B01F038FB02000B002000B8
:1046B000290001F002FB02000B0006000F0001F0D0
:1046C0002CFB320004000D003B003000390001F0EB
:1046D000FDFA002210901191564B2000290001F0A4
:1046E000FEFA0022544B01F0F1FA02000B00200008
:1046F000290001F0F4FA0022504B01F0E7FA020021
:104700000B002000290001F0EAFA0D0080213200A0
:104710003B000400C905002001F0CFFA02000B00A5
:104720002000290001F0D2FA02000B001098119924
:1047300001F0D5FA0022344B01F0C8FA404A0F9B31
:104740009446634400221B0501F0E7FA06000F00BF
:1047500002000B004846099901F022FB00280AD00C
:104760000D9B3000013B39000D930022324B01F0CC
:10477000B6FA06000F00C6250D99330063318D424D
:10478000AD4128996D420435090500D483E63B43C9
:1047900000D16FE6099C484621002A4A2A4B01F0C5
:1047A0000DFB002808D0002248462100274B01F0CD
:1047B000F7FA002800D05DE6269B002B00D16AE6C0
:1047C0000E9B5A1E9341269AD31A269363E6002322
:1047D00004250D935FE680231B065344C1460993CD
:1047E00031E6002326934EE60A008446013A6244ED
:1047F000121BEEE601FCFFFFFB799F501344D33FF1
:10480000B3C8608B288AC63F0000F03F0000F83F25
:1048100061436F63A787D23F71A379094F930A4021
:104820000000E03F1655B5BBB16B0240EF39FAFE10
:10483000422EE63F00002C400000244000001840BB
:10484000FF0300002D431CEBE2361A3F80842E410B
:10485000F0B54E46DE4657464546E0B597B0994618
:10486000209E219F229B8346984607910C923B00F5
:1048700032003000390001F0AEFA002800D0C1E16A
:10488000012230003900CA4B524201F089FA002857
:1048900000D0E0E0012230003900C64B524201F066
:1048A00095FA002800D0B6E0002230003900C24B53
:1048B00001F08CFA002800D098E000223000390086
:1048C000BE4B01F06DFA002800D08FE000220023DB
:1048D0003000390001F064FA002800D0B0E0002375
:1048E0000D93249B5B0501D40623984608AB9C4698
:1048F0001722002430234146624404E0013413555A
:104900000139202C01D00929F8D888463000390017
:1049100001F08CFA4346DA00A94B05009B181A688F
:104920005B680892099301F069FA02000B003000FD
:10493000390001F0C2F9089A099B01F0EEF90A90DA
:104940000B9101F097FA824601F054FA02000B0035
:104950000A980B9901F0B1F900229A4B0A900B9139
:1049600001F034FA002800D1C0E001239C46E24463
:10497000504601F03FFA02000B000898099901F037
:1049800015FA002802D000239A4601354346002B31
:1049900069D008AB17269C4608956644554614E036
:1049A00001235B4243440A2128009A4600F04AFF53
:1049B000013430313719397028000A2100F042FFE4
:1049C000092D00D8D5E0D0460500202CE8D10323DE
:1049D000249A1340012B00D100E10EAB9846249B92
:1049E00001940393239B029343461EE0249B584665
:1049F0000493239B00960197039343460C9A0293DA
:104A000007994B46FFF7E8FC17B03CBC9046994627
:104A1000A246AB46F0BD249B5B070ED403226A4B33
:104A200024990192039123990291009358464B4691
:104A30000C9A0799FFF770FBE6E70422634BEFE758
:104A40003B0032000020002101F037F9012306006D
:104A50000F000D9345E7249B0393239B02930423AC
:104A600001935B4BE1E7280001F0C8F902000B005D
:104A70003000390001F021F9524B002206000F00EE
:104A800001F08EF90EAB984600280AD100223000C2
:104A900039004C4B01F09AF9002802D1EB0700D500
:104AA0000135202C32D008AA9446172328006344ED
:104AB0000A2101341E1900F09DFE303128003170AA
:104AC0000A2100F097FE051EEBD10323249A134020
:104AD000012B00D191E01F2C00D980E70D9B002B0A
:104AE0003BD02D2342461355013478E700220A9823
:104AF0000B99344B01F054F9002800D046E7534697
:104B0000002B67D101239C46E2443FE70323249A0C
:104B10001340012B00D062E7239B002B00D15EE7FE
:104B20000D9B002B03D1249A0C33134202D0239BFC
:104B3000013B2393239B9C42CDD208AB9C4617227A
:104B4000302362441F2C06D82399013413558C421C
:104B5000C1D0202CF8D1202441E7249B5B0721D42D
:104B6000249B1B0700D43AE7202342461355013407
:104B700035E75746089D202C37D02200302140468B
:104B8000002F08D00132B154202A43D0D3431B193F
:104B90001B18002BF6D10EAB98462E234146541C11
:104BA0008B547EE72B2342461355013417E7C0464A
:104BB000FFFFEFFFFFFFEF7F65CDCD4165CDCDC19D
:104BC000D07500100000E03FD8730010DC730010B7
:104BD000E8730010DB0700D4D8E693E7239B002B93
:104BE00000D1FAE60EAB98469AE70323249A1340C5
:104BF000012B00D0F1E60EAB9846239B002B00D191
:104C000069E78DE7249B0393239B0293032301937E
:104C1000064B0AE70323249A20241340012B00D0DB
:104C2000DBE6239B2024002BDCD1D6E6E4730010C6
:104C3000F0B5DE464E4657464546E0B59FB01C00EF
:104C4000289B93460993CF4ACF4B894608901A6018
:104C5000002900D116E2002320789A46002800D1CE
:104C600018E226001D004C460AE02A006F1C5B4635
:104C7000089D2100A8473D000136307800287AD0F1
:104C80002528F2D110239A46083B9946043B9846C2
:104C9000023B00219C46721C107816000300203B4A
:104CA000DBB2102B03D8B94F9B00FB589F46030083
:104CB000303B092B3CD900230A932A2800D171E00C
:104CC000002398462E2847D00300683BDBB2122B06
:104CD0001FD8AF4A9B00D3589F4601230132194386
:104CE000DAE7634601321943D6E7434601321943F6
:104CF000D2E7534601321943CEE74B4601321943FE
:104D0000CAE770786C2800D1BFE280235B001943AA
:104D100001360300253BDBB2532BA6D89D4A9B00EE
:104D2000D3589F4680235B00707819430136F0E723
:104D300000270300B800C01901364000C0183378BE
:104D400030381A00303A0700092AF3D90A901800BF
:104D5000002398462E28B7D180237078DB001943B2
:104D60000300303B721C092B00D895E12A2800D1A2
:104D7000A6E11600A8E7A146AA462C00D34503D811
:104D800001235B425B449A465B46524649460020FB
:104D9000089DA84720001FB03CBC90469946A246FB
:104DA000AB46F0BD099B40CB0A96002E03DB507842
:104DB0000993561C84E72838014370420A900993EE
:104DC0005078561C7CE7782800D1D4E1582800D1CF
:104DD00068E26F2800D152E3622800D1D8E11023A5
:104DE0000A009A430B92692801D000F0A2FC0A2322
:104DF0000C934B0500D4D5E101230B9A9A430B92F7
:104E0000692800D1CEE1642800D1CBE10B9A802340
:104E100011009B0019408A461A4200D032E38023D9
:104E200011005B00194089461A4201D000F002FCD3
:104E300013005B0600D510E30B9B1B0601D400F0AA
:104E40006EFC099B04CB1204120C92460993534644
:104E5000002B00D064E30B9A1033110099430B919F
:104E6000520500D45CE3002399460B9B06930A9BF2
:104E70000593434604930C9B03930023DEE2707872
:104E8000682800D107E280230136194341E78023D7
:104E90009B007078194301363BE7462800D174E146
:104EA0000722099B0491073393430A9A190003923E
:104EB000424602920CC908980092019309912A0077
:104EC0005B462100FFF7C4FC01360500D5E6099BCF
:104ED0001A0008CA9146002B00D105E12122114396
:104EE0008A460EA884461F216144099500220F2797
:104EF000A4460D0002E0202A0CD00B003C001C4010
:104F000020003730092C00D807380132A85419097D
:104F10000F2BF0D86446099DF0E08B0700D4D1E157
:104F2000099B2A0099466B1C98464B4601CB2100F1
:104F30009946089F5B46C0B2B8470A9B9C466544A9
:104F4000012B00D890E2B2465E464746A846089D2F
:104F50003A003300013721002020A8474745F7D108
:104F6000B3464B4656463D000993013685E62A0076
:104F70006F1C5B46089D21002520A84701363D0097
:104F80007BE6C046314C00100C150020F073001079
:104F90003474001080740010099B04CB994643467A
:104FA0000992002B00D097E013789C46002B00D18B
:104FB000B3E302235B425A1C099B924618000A9FE6
:104FC0000B92504402E0834200D169E15A780133E8
:104FD000002AF8D1099A0A979B1A0B9380230A009A
:104FE000DB001A400C92194204D00B9B434501D9B7
:104FF00043460B9302231A000A400D920B4200D144
:1050000084E16046002823D00C9B002B00D124E1D2
:10501000A844C246099B57465B1B9846089BB2466C
:105020002A0026005C469B4609E023003100551CFF
:10503000D8474346585D002800D13FE12A009742F7
:10504000F3D1A3463D00340056460D9B002B69D09A
:105050000B9B0A99A846994264D98C466544ED1A7F
:10506000089B47469A46B04626005C463A00230015
:10507000013731002020D047AF42F7D1A34634009A
:1050800046464FE0D24B2078089300239A460028EA
:1050900000D0E6E5002471E6434606000A9F98002A
:1050A000C0180132400080191678030030003038F3
:1050B000303B0928F3D93000984616000A9703E6DA
:1050C000099B023604CB9046D2434046D21710408B
:1050D000804609933078F7E513789C46002B00D181
:1050E0001AE34346013B66E7102208009043113261
:1050F000104382460022490500D4F2E65346069347
:10510000082305934346049310230393002302933B
:1051100016AB019200932A005B4621000898FFF726
:1051200063F805004B4601360993A6E520230200EB
:105130009A43472A04D180231B0119430223984331
:10514000452801D1202319430722099B04910733E5
:1051500093430A9A19000392424602920CC9089896
:105160000092019309912A005B462100FFF734F970
:105170000136050081E510230C930C230A009A43A5
:105180000B924B0500D43BE636E62023194387E615
:1051900002230C930B910B996428EED10B9B5B05BA
:1051A00000D529E60B9A802311009B0019408A46FE
:1051B0001A4200D0CEE0802311005B0019408946DE
:1051C0001A4200D0DBE113005B0600D51DE10B9B0A
:1051D00009991B0600D499E208C91BB2D8171A18FE
:1051E000424092B209919246DA0F1292002B09D1F5
:1051F000802310220B99DB000B4091430B91002B75
:1052000000D012E10B9A6123920600D541230EA92A
:105210001F228C46DBB262440A3B57461395A246D6
:105220004D460C9CB1460D9316000AE03033DBB2BC
:1052300001357355A74200D21CE1202D00D119E1A0
:1052400007002100380000F0FDFACBB20929EDD9A2
:105250000D9A94466344DBB2EAE7099B5F465B1B09
:1052600098460A9BB3469A462600089C2A003B00B3
:105270003100A04743460135585D0028F6D153461A
:1052800034000A935E46BB46DFE6C0239B00B0783D
:10529000194302363DE5C023B0781943023638E59C
:1052A0000A979BE60C230A009A4314331A431023EF
:1052B0000B920C934B0500D4A8E59DE5A346340062
:1052C0005646C2E60A9A012A00D82EE26B1E9F18A3
:1052D000089BB046994626005C462A00230001350B
:1052E00031002020C847BD42F7D1A34634004646CE
:1052F000099B3A0001CB210098467D1C5B46089F24
:10530000C0B2B847434601360993B6E40B9A0A98EF
:10531000531C904200D80AE243199B1A1F00089BB5
:10532000B24626005C469B462A0023000135310028
:105330002020D847BD42F7D10A9BA34601330B93E7
:10534000099B34001B7856469C466046002800D0D6
:105350005AE6E7E60722099B073393430132944656
:105360009C4462465F6809921A68FB171093119378
:1053700010981199030053400E930B007B400F933C
:1053800094460E9A0F9B121A8B410E920F93FB0FAD
:105390006246129300233A439A463DD00B9A61230A
:1053A000920600D541230022DBB20EA90A3B8C46AF
:1053B00091460D9343461F326244139515964D4610
:1053C0000E9E0F9FA14690460C9C14930FE0C04682
:1053D000154100103032D2B2434601355A55BA4514
:1053E00000D17CE1202D00D17CE106000F002200DD
:1053F00000233000390000F063FAD2B2092AE9D95B
:105400000D9B9C466244D2B2E6E7FF23099904C98A
:1054100013401A000991E6E60B9A103311009943E4
:105420000B915205BAD5002399460B9B06930A9B14
:105430000593434604930C9B0393129B02934B46A4
:10544000019316AB2A00009321005B460898FEF7F3
:10545000CBFE01360500FFF710FCFF22099B02CBB3
:1054600011408A460993F2E44B46454609930136BA
:10547000FFF703FC4E465446A946139DD5E7082383
:105480000C9387E60722099B073393430132944626
:105490009C44624609921A685B6810009A461300A1
:1054A0005246134307D10B9A1033110099430B91C5
:1054B000520500D5D7E40B9A6123920600D541230B
:1054C0000022DBB20EA90A3B8C4691460D9343465F
:1054D0001F32624457461295A2464D460400B1461B
:1054E00090460C9E13930DE03032D2B24346013504
:1054F0005A550023BB4200D1FDE0202D00D1FDE034
:1055000004000F00320000232000390000F0D8F919
:10551000D2B2092AE8D90D9B9C466244D2B2E5E793
:105520000B9A6123920600D54123DBB20EA90A3BF8
:105530001F228C460D932300624454461295170097
:105540004D469A46B1460C9E08E03033DBB2013539
:105550007B55B4420ED3202D0CD004003100200026
:1055600000F070F9CBB20929EFD90D9A9446634443
:10557000DBB2ECE74E465446A946129D75E4099B02
:105580001A0008CAD91713925A184A409146DA0FDE
:105590001292002B08D1802310220B99DB000B40C4
:1055A00091430B91002B2BD10B9A6123920600D5CE
:1055B00041230EAA1F279446DBB20A3B0D95674490
:1055C00055460993A2464C46B1460C9E08E030333E
:1055D000DBB201357B55B4420ED3202D0CD0040034
:1055E0003100200000F02EF9CBB20929EFD9099A39
:1055F00094466344DBB2ECE74E465446AA460D9D02
:105600000B9B2A0006930A9B2100059343460493B3
:105610000C9B08980393129B013602935346019307
:1056200016AB00935B46FEF7DFFD139B0500099365
:10563000FFF723FB099B04CB91461293002A08D164
:10564000802310220B99DB000B4091430B91002B20
:105650002BD10B9A6123920600D541230EAA1F2756
:105660009446DBB20A3B0D95674455460993A24622
:105670004C46B1460C9E08E03033DBB201357B5519
:10568000B4420ED3202D0CD004003100200000F0D5
:10569000D9F8CBB20929EFD9099A94466344DBB211
:1056A000ECE74E465446AA460D9D0B9B2A000693F6
:1056B0000A9B21000593434604930C9B089803938F
:1056C000002302935346019316AB00935B46FEF70B
:1056D0008BFD129B050009930136FFF7CEFAB44209
:1056E00000D87FE6149B4C460E960F97A946984625
:1056F000159E139D99E6A64200D8FEE6139B4E46E2
:105700009846A9465446129DFFF7AFFB08C9D81723
:105710001A184240099166E500230B935EE4099B49
:1057200004CB92460993FFF792FB2F00E0E50B9321
:105730000BE6063B0C932EE500B585B003910121E5
:1057400002900093034813004A4202A9FFF770FA3F
:1057500005B000BDC943001010B5094A0300146824
:1057600084B0002C08D0012200910648524203A9BF
:10577000A047012004B010BD01F046F80020F9E771
:105780000C150020B943001001480421014B1847B3
:1057900030020020B9570010142310B501001888FA
:1057A00004331B88984710BD162310B501001888D4
:1057B00002331B88984710BDF0B5C64600B50029D6
:1057C00016D014230400012598461827890046188E
:1057D0004346216818883B88984701C4431E984176
:1057E00040420540A642F3D1280004BC9046F0BDDB
:1057F0000125F9E7124A936F9B0815D29066D1668E
:10580000002905D0FFE7FFE7FFE7516F106F7047F2
:1058100004B580210906C2175140002800D0C843B2
:1058200001F076FD002104BDF0B5146E556E576F82
:10583000166FFFF7E3FF1466556657671667F0BDEE
:10584000000000D0114A936F9B0813D21066516676
:10585000002905D0FFE7FFE7FFE7516F106F7047A2
:1058600004B5002801D00020C04301F051FD002103
:1058700004BDC046F0B5146E556E576F166FFFF736
:10588000E5FF1466556657671667F0BD000000D047
:1058900094464A4A926F9208624601D228E0C04676
:1058A000F0B5464E346E756E776F366F00F020F8A7
:1058B0009446424A14665566576716676246F0BDBD
:1058C00094463E4A926F9208624601D254E0C04626
:1058D000F0B53A4E346E756E776F366F00F04CF857
:1058E0009446364A14665566576716676246F0BD99
:1058F000002B24DB11D000293EDA00B5C943404219
:1059000000D1013100F038F8C943404200D10131E3
:10591000DB43524200D1013300BD002AEBD1002805
:1059200001D1002905D00020C90FC90701D1C0430A
:10593000410800B501F0E4FC0022002300BD00B5E1
:1059400000290ADBDB43524200D1013300F014F896
:10595000C943404200D1013100BDC943404200D19A
:105960000131DB43524200D1013300F005F8DB4343
:10597000524200D1013300BD002923D1002B18D1A0
:10598000002A0CD0BC460D4F38667A6600210023F1
:10599000FFE7FFE7FFE77A6F386F67467047002839
:1059A00001D00748010000B501F0AAFC0022002345
:1059B00000BD02000B00002000217047000000D055
:1059C000FFFFFFFF002B00D0BFE0130C28D1002AFF
:1059D000E7D080B4114F39667A66FFE7FFE730B44D
:1059E000040C7B6F396F1B0423433B667A66FFE729
:1059F000FFE7FFE7C04684B27B6F3D6F1B04234384
:105A00003B667A66FFE7FFE7C04600232C042D0CB7
:105A10007A6F386F00196941B0BC7047000000D040
:105A2000F0B594460025140E01D112020835140F6A
:105A300001D112010435940F01D192000235D40F27
:105A400001D152000135D40B0134254F7C66254C21
:105A50003C660E0C93B2FFE7FFE7FFE73C6F66433F
:105A6000360C7703BE467343DF0B5B04C01AB941A3
:105A7000130C7343DB18C91ACE086643360CB644C0
:105A800093B273431F0F1B01C01AB941130C734328
:105A90001F0B1B05C01AB941860D8F023E4366439A
:105AA000360C092D24DB520A7243801A7703460A0A
:105AB0006643360C16235B1BDE40DF40BF1964468D
:105AC0006643821B7046043506330100D940A84066
:105AD000C01900D30131A24206D20023F0BD00005C
